:020000040800F2
:1000000078110020890100088D0100088F01000887
:10001000910100089301000895010008000000000C
:100020000000000000000000000000009701000830
:1000300099010008000000009B0100089D010008D4
:100040009F0100089F0100089F0100089F01000810
:100050009F0100089F0100089F0100082F60000811
:100060009F0100089F0100089F0100089F010008F0
:100070009F0100089F0100089F0100089F010008E0
:1000800031700008917000089F0100089F0100086E
:100090009F0100089F0100089F01000841600008BF
:1000A0009F0100089F0100089F0100089F010008B0
:1000B000D96700089F0100089F010008C16E000871
:1000C000C96F00089F0100089F0100089F010008F8
:1000D0009F0100089F0100089F0100089F01000880
:1000E000895C00089F0100089F01000800F002F8E9
:1000F00000F03AF80AA090E8000C82448344AAF188
:100100000107DA4501D100F02FF8AFF2090EBAE885
:100110000F0013F0010F18BFFB1A43F0010318473B
:10012000A0880000C0880000103A24BF78C878C1B9
:10013000FAD8520724BF30C830C144BF04680C60ED
:10014000704700000023002400250026103A28BF35
:1001500078C1FBD8520728BF30C148BF0B60704739
:100160001FB51FBD10B510BD07F07BFA1146FFF794
:10017000F7FF02F0CDFF07F099FA03B4FFF7F2FFA3
:1001800003BC07F09DFA000008480047FEE7FEE7C1
:10019000FEE7FEE7FEE7FEE7FEE7FEE7FEE7FEE737
:1001A00003480449044A054B70470000ED0000086D
:1001B000780B002078110020780D0020780D0020A9
:1001C00031490143314A1160704770B50021002365
:1001D0000F22C4780CB32D4C246804F4E064C4F5F9
:1001E000E064210AC1F10403CA40447804FA03F12F
:1001F0008478144021430901254C0678A1550478E0
:1002000004F01F050124AC4005786D114FF0E02685
:1002100006EB8505C5F8004109E0047804F01F05E8
:100220000124AC401B4D0678761145F8264070BD80
:10023000194A0A400243154B1B1F1A60704739B117
:10024000124A121D12680243104B1B1D1A6006E071
:100250000E4A121D126882430C4B1B1D1A60704718
:10026000042808D14FF0E021096941F004014FF062
:10027000E022116107E04FF0E021096921F004015B
:100280004FF0E022116170470000FA050CED00E02C
:1002900000E400E080E100E080FFFF1F10B50446AD
:1002A000FA48844208D10121401501F04BFC00219D
:1002B000601501F047FC17E0F548844208D10121A0
:1002C000001501F03FFC0021201501F03BFC0BE084
:1002D000F048844208D10121C80301F033FC002119
:1002E0004FF4004001F02EFC10BD30B50246002056
:1002F00000235068E84C20400D790C6844EA05243E
:10030000204350609068E54C2040D1E902542C43D2
:100310004D7944EA450420439060D06A20F470008F
:100320000C7C641EE4B2234340EA0350D06230BD2B
:1003300000210160017141718160C160012101747E
:10034000704721B1826842F00102826003E0826856
:1003500022F001028260704721B1826842F480720B
:10036000826003E0826822F480728260704710B578
:100370000023CBB21AB144681C43446002E04468D5
:100380009C43446010BD816841F008018160704762
:10039000014600208A6812F0080F01D0012000E019
:1003A00000207047816841F0040181607047014678
:1003B00000208A6812F0040F01D0012000E0002024
:1003C000704721B1826842F4A002826003E0826833
:1003D00022F4A00282607047014600208A6812F46D
:1003E000800F01D0012000E00020704710B50A46C0
:1003F00000210023416821F46041531E41EA43314A
:10040000416010BD21B1426842F40062426003E0E5
:10041000426822F4006242607047F0B504460D461F
:1004200000200021092D11DDE068A5F10A0606EB88
:100430004607072606FA07F18843A5F10A0606EBE8
:10044000460603FA06F10843E0600CE0206905EB7C
:100450004507072606FA07F1884305EB450603FA28
:1004600006F108432061072A0FDA606B561E06EB7F
:1004700086071F2606FA07F18843561E06EB8606F6
:1004800005FA06F10843606322E00D2A0FDA206BBB
:10049000D61F06EB86071F2606FA07F18843D61FEC
:1004A00006EB860605FA06F10843206310E0E06AD1
:1004B000A2F10D0606EB86071F2606FA07F1884310
:1004C000A2F10D0606EB860605FA06F10843E06286
:1004D000F0BD21B1826842F48012826003E082683C
:1004E00022F48012826070470146C86C80B2704767
:1004F00066484C300068704721B1426842F480621F
:10050000426003E0426822F480624260704721B199
:10051000426842F48052426003E0426822F4805212
:10052000426070470A460021816821F4E04111438E
:100530008160704721B1826842F40042826003E02A
:10054000826822F400428260704721B1826842F4DE
:100550000212826003E0826822F402128260704715
:10056000014600208A6812F4001F01D0012000E03B
:1005700000207047F0B504461546002000220026F2
:10058000092911DDE068A1F10A0707EB470C0727ED
:1005900007FA0CF29043A1F10A0707EB470703FAA9
:1005A00007F21043E0600CE0206901EB410C0727E3
:1005B00007FA0CF2904301EB410703FA07F21043EC
:1005C0002061A06BC0F30156EF1C06F1010CA7EBF4
:1005D0000C0707EB870C1F2707FA0CF29043EF1C60
:1005E00006F1010CA7EB0C0707EB870701FA07F2EE
:1005F0001043A063F0BD10B50A4600210023816BB3
:1006000021F44011531E41EA0351816310BD08B526
:10061000002300930090009B0B440093009B1A6002
:1006200008BD08B5024600200090009201F12800A4
:10063000009B184400900098006880B208BD0A46EC
:1006400000214168164B19401143416070474162D7
:10065000826270470A460021416821F01F01114360
:100660004160704740B109490831096841F400010F
:10067000064A0832116007E004490831096821F48C
:100680000001024A08321160704700000024014056
:1006900000280140003C0140FFFEF0FFFDF7F1FFA4
:1006A000FFFD3FFF0246002013680B4201D00120EE
:1006B00000E000207047CA430260704770B50246F0
:1006C0000020002300240B125568CEB205EA060470
:1006D00015681D4202D00CB1012000E0002070BD61
:1006E00000220A12D34303607047000001684FF6EE
:1006F000FE72114001600021016041608160C160B3
:100700008C49884208D18B490839496841F00F016A
:10071000884A083A51608AE086491431884208D1F3
:1007200084490839496841F0F001824A083A516029
:100730007DE080492831884208D17E4908394968DE
:1007400041F470617B4A083A516070E079493C316C
:10075000884208D177490839496841F47041754A9F
:10076000083A516063E073495031884208D17149B9
:100770000839496841F470216E4A083A516056E0E0
:100780006C496431884208D16A490839496841F4A2
:100790007001684A083A516049E0664978318842F8
:1007A00008D164490839496841F07061614A083AE2
:1007B00051603CE06049884206D1011F096841F060
:1007C0000F01021F116032E05B491431884208D1E9
:1007D0005949091F096841F0F001574A121F116079
:1007E00025E055492831884208D15349091F096835
:1007F00041F47061504A121F116018E04E493C31BB
:10080000884208D14C49091F096841F470414A4A9D
:10081000121F11600BE048495031884207D1464908
:10082000091F096841F47021434A121F1160704783
:1008300010B50022026847F6F0739A430C6A8B6881
:1008400023430C6923434C6923438C692343CC69BC
:1008500023434C6A23438C6A23431A430260CB68C8
:1008600043600B6883604B68C36010BD002101606A
:1008700041608160C160016141618161C16101626A
:1008800041628162704721B1026842F00102026058
:1008900004E002684FF6FE731A40026070471AB116
:1008A00003680B43036002E003688B4303607047F7
:1008B000416070470146486880B270470146002099
:1008C000002211F0805F03D01B4B083B1A6802E046
:1008D000184B083B1A680A4201D0012000E00020B2
:1008E000704710F0805F03D01349091F086002E0D1
:1008F000104908394860704701460020002211F075
:10090000805F03D00C4B083B1A6802E0094B083BA0
:100910001A680A4201D0012000E00020704710F060
:10092000805F03D00449091F086002E001490839CB
:100930004860704708000240080402400020444913
:100940000860091D0860091D0860091D086041480C
:100950003F4914310860704700213D498279002ADF
:100960003AD00A46126803689A430B461A600A1D79
:10097000126803689A430B1D1A60027911440A68D1
:1009800003681A430A60324A0832126803689A43BD
:100990002F4B08331A601A1D126803689A432C4BB8
:1009A0000C331A604279102A0ED11A1F126803689C
:1009B0001A43274B08331A601A1D126803681A433A
:1009C000234B0C331A600DE02149427911440A6827
:1009D00003681A430A6005E0027911440A68036853
:1009E0009A430A6070470021016001710C21417136
:1009F0000021817170471649103109680143144A7A
:100A000010321160704701460020114A14321268FA
:100A10000A4201D0012000E0002070470C49143147
:100A200008607047014600200022094B1B6803EA5A
:100A30000102074B14331B680B4202D00AB101209C
:100A400000E0002070470249143108607047000040
:100A500000040140FFFF0F0001460020FE4A10681D
:100A600000F03800084310607047FB49096821F026
:100A70000801F94A11601146096801431160704785
:100A8000F549096821F01001F34A1160114609681F
:100A9000014311607047F148EF494860F0484860F1
:100AA0007047EE48EC494860ED4848607047EA48B6
:100AB000006940F08000E84908617047E648006935
:100AC00040F08000E449086170470420E249C968A9
:100AD00011F0010F01D001200EE0DF49C96811F0CB
:100AE000040F01D0022007E0DB49C96811F0100FA4
:100AF00001D0032000E00420704700B50246042323
:100B0000FFF7E3FF034603E0FFF7DFFF0346521E54
:100B1000012B01D1002AF7D102B90523184600BDE7
:100B200030B5044604254FF43020FFF7E6FF0546B4
:100B3000042D17D1C848006940F00200C649086179
:100B400008464461006940F0400008614FF43020DD
:100B5000FFF7D3FF0546C048006941F6FD71084024
:100B6000BD490861284630BD10B504244FF430203B
:100B7000FFF7C3FF0446042C16D1B748006940F0C4
:100B80000400B54908610846006940F0400008616A
:100B90004FF43020FFF7B1FF0446AF48006941F63B
:100BA000FB710840AC490861204610BD00B5024603
:100BB0000423FFF78AFF034603E0FFF786FF03469F
:100BC000521E012B01D1002AF7D102B90523184684
:100BD00000BD10B504244FF43020FFF7E7FF0446B2
:100BE000042C16D19C48006940F004009A49086121
:100BF0000846006940F0400008614FF43020FFF7DC
:100C0000D5FF04469448006941F6FB7108409249BB
:100C10000861204610BD00208F49C96911F0020FFC
:100C200001D0012000E00020704730B5A525042444
:100C3000FFF7F1FF00B100254FF43020FFF75DFF13
:100C40000446042C3AD185488349886084488860EA
:100C50000846006940F0200008610846006940F03D
:100C6000400008614FF43020FFF747FF0446042C92
:100C70001BD17948006941F6DF7108407649086167
:100C80000846006940F01000086176480580E002DF
:100C9000FFF733FF0446052C10D06F48006941F67A
:100CA000EF7108406C49086108E0052C06D06A48DD
:100CB000006941F6EF71084067490861204630BD80
:100CC00078B506460C46042500200090E802FFF7A0
:100CD00014FF0546042D24D15F48006940F001004F
:100CE0005D4908613480E802FFF707FF0546042DDF
:100CF00010D1B01C0090200C00990880E802FFF78A
:100D0000FCFE05465448006941F6FE710840524910
:100D1000086106E05048006941F6FE7108404E49FE
:100D20000861284678BD70B504460D460426F002D9
:100D3000FFF7E3FE0646042E11D14748006940F054
:100D40000100454908612580F002FFF7D6FE0646FE
:100D50004148006941F6FE7108403F49086130464C
:100D600070BD70B505460E460424E002FFF7C5FECF
:100D70000446042C17D139483749886038488860C0
:100D80000846006940F0100008612E80E002FFF77D
:100D9000B4FE0446052C06D02F48006941F6EF71D9
:100DA00008402D490861204670BD2DE9F0430446F6
:100DB0004FF6FF763746B046B1460425E443E6B227
:100DC000C4F30727C4F307484FEA1469E802FFF7A2
:100DD00094FE0546042D49D120481F4988602048CB
:100DE00088600846006940F010000861FF2E06D0B8
:100DF0001C4808300680E802FFF77FFE0546042DF8
:100E000008D1FF2F06D017480A300780E802FFF705
:100E100074FE0546042D0AD1B8F1FF0F07D0114822
:100E20000C30A0F80080E802FFF767FE0546042DAD
:100E30000AD1B9F1FF0F07D00A480E30A0F8009090
:100E4000E802FFF75AFE0546052D0FD0024800695B
:100E500041F6EF71084007E000200240230167459A
:100E6000AB89EFCD00F8FF1F664908612846BDE851
:100E7000F08330B5054604244FF43020FFF73DFEE3
:100E80000446042C41D160485E4988605F48886010
:100E90000846006940F0200008610846006940F0FB
:100EA000400008614FF43020FFF727FE0446042C71
:100EB00022D15448006941F6DF7108405149086168
:100EC0000846006940F0100008611DB1002050493B
:100ED000088002E0A5204E4908804FF43020FFF73B
:100EE0000CFE0446052C10D04648006941F6EF710F
:100EF00008404449086108E0052C06D041480069D3
:100F000041F6DF7108403F490861204630BDF0B529
:100F100005460E46174604243B483A4988603B483C
:100F20008860E002FFF7E9FD0446042C19D135483A
:100F3000006940F010003349086147F0F800304381
:100F400028433349891C0880E002FFF7D6FD044698
:100F5000052C06D02B48006941F6EF71084029495D
:100F600008612046F0BD2748C069800870472548C1
:100F7000006A704700202349096811F0200F01D052
:100F8000012000E00020704729B11E4A1269024387
:100F90001C4B1A6104E01B4A12698243194B1A6107
:100FA000704701460020012908D1164AD26912F083
:100FB000010F01D0012008E0002006E0114AD268AC
:100FC0000A4201D0012000E0002070470D49C860AE
:100FD000704704200B49C96811F0010F01D00120AE
:100FE0000EE00849C96811F0040F01D0022007E0A3
:100FF0000449C96811F0100F01D0032000E004205B
:10100000704700000020024023016745AB89EFCD07
:1010100000F8FF1F10B50446CA48844208D10121D8
:10102000042000F08FFD0021042000F08BFD46E03D
:10103000C548844208D10121082000F083FD002129
:10104000082000F07FFD3AE0C048844208D1012129
:10105000102000F077FD0021102000F073FD2EE03D
:10106000BB48844208D10121202000F06BFD002103
:10107000202000F067FD22E0B648844208D101211B
:10108000402000F05FFD0021402000F05BFD16E0F5
:10109000B148844208D10121802000F053FD002195
:1010A000802000F04FFD0AE0AC48844207D10121C6
:1010B000801500F047FD0021A01500F043FD10BD94
:1010C00010B50121084600F03DFD0021012000F08F
:1010D00039FD10BD2DE9F041024600250026002013
:1010E00000230024002791F803C00CF00F0591F8AD
:1010F00003C01CF0100F03D091F802C04CEA0505A4
:1011000091F800C0BCF1000F31D0146800202BE032
:101110004FF0010C0CFA00F3B1F800C00CEA030622
:101120009E4220D183004FF00F0C0CFA03F7BC4312
:1011300005FA03FC4CEA040491F803C0BCF1280F43
:1011400006D14FF0010C0CFA00FCC2F814C00AE002
:1011500091F803C0BCF1480F05D14FF0010C0CFA17
:1011600000FCC2F810C0401C0828D1D31460B1F8AC
:1011700000C0BCF1FF0F34DD546800202EE000F108
:10118000080C4FF0010808FA0CF3B1F800C00CEAA3
:1011900003069E4221D183004FF00F0C0CFA03F797
:1011A000BC4305FA03FC4CEA040491F803C0BCF10B
:1011B000280F05D100F1080C08FA0CF8C2F81480C9
:1011C00091F803C0BCF1480F07D100F1080C4FF0B3
:1011D000010808FA0CF8C2F81080401C0828CED389
:1011E0005460BDE8F0814FF6FF71018002218170EB
:1011F0000421C17070470246002093680B4201D061
:10120000012000E0002070470146886880B27047E6
:1012100002460020D3680B4201D0012000E00020EC
:1012200070470146C86880B27047016170474161EC
:1012300070470AB1016100E041617047C1607047C9
:101240004FF480320A4382618161826182698269DE
:10125000704702460020424B18684FF680731840D2
:1012600040EA021008433E4B186070473D49C86190
:101270007047F0B50A46002300240021002500F045
:101280000046B6F1004F02D1354EF16901E0344E0F
:101290007168C0F3034583B200F44016B6F5401FF1
:1012A00008D121F070612E4E766826F070662C4FC2
:1012B0007E6012E000F48016B6F5801F06D103268A
:1012C00006FA05F4A14341F0706106E0460D3601CF
:1012D00003FA06F6B14341F0706122B1460D3601C2
:1012E00003FA06F6314300F00046B6F1004F02D192
:1012F0001B4EF16101E01A4E7160F0BD30B5002265
:101300008B071C0F0F2303FA04F2154B08338C10C4
:1013100053F824309343124C08348D1044F8253090
:1013200023468C1053F824308C07240F00FA04F461
:1013300023430B4C08348D1044F8253030BD0A4946
:101340000860704700080140000C01400010014097
:101350000014014000180140001C01400020014021
:101360000000014000002042DC00204210B504468D
:10137000F748844209D10121480500F0F0FB002123
:101380004FF4001000F0EBFB08E00121880500F0AD
:10139000E6FB00214FF4800000F0E1FB10BD2DE9D9
:1013A000F04385B004460D460026B1460427DFF819
:1013B000A483A6884FF6C0700640684600F03BFB49
:1013C000DDF80880E448B8FBF0F01FFA80F946EA3F
:1013D0000906A68020884FF6FE710840208000266E
:1013E000DE49286888420CD828684000B8FBF0F035
:1013F00087B2042F00DA04273E4309F1010020845C
:1014000027E0E888A0F53F41FF3906D1286800EBC6
:101410004000B8FBF0F087B209E0286800EBC0019B
:1014200001EB0010B8FBF0F087B247F480473805B5
:10143000000D01D147F0010747F4004006434FF487
:10144000967009FB00F04FF47A7190FBF1F0401CAC
:101450002084A683208840F00100208026884FF653
:10146000F5300640A8886989084306432680A88984
:1014700029890843208105B0BDE8F08341F2883115
:101480000160002181804BF6FF71C1800021018144
:1014900041814FF480418181704721B1028842F03F
:1014A0000102028004E002884FF6FE731A400280B7
:1014B000704721B1828842F40062828004E0828811
:1014C0004FF2FF731A408280704721B1828842F444
:1014D0008052828004E082884EF6FF731A40828038
:1014E000704721B1028842F48072028004E00288D1
:1014F0004FF6FF631A400280704721B1028842F420
:101500000072028004E002884FF6FF531A40028006
:10151000704721B1028842F48062028004E00288B0
:101520004FF6FF331A40028070470A460021818936
:101530004FF60173194002F0FE0319438181704791
:1015400021B1828942F00102828104E082894FF652
:10155000FE731A408281704721B1028842F0400236
:10156000028004E002884FF6BF731A400280704781
:101570001AB183880B43838002E083888B43838086
:101580007047018270470146088AC0B2704712B1A5
:1015900041F0010102E04FF6FE73194001827047ED
:1015A00008B5024600200090009200980844009080
:1015B0000098008808BD21B1028842F400420280F0
:1015C00003E00288C2F30E0202807047B1F5006F9B
:1015D00004D1028842F40062028004E002884FF2E3
:1015E000FF731A4002807047B1F5005F04D1028892
:1015F00042F40052028004E002884DF6FF731A4064
:101600000280704721B1028842F48052028004E0D7
:1016100002884EF6FF731A4002807047B1F5006FE2
:1016200004D1028842F40062028004E002884FF292
:10163000FF731A400280704721B1028842F02002F5
:10164000028004E002884FF6DF731A400280704780
:101650000146088B0012704721B1028842F0100247
:10166000028004E002884FF6EF731A400280704750
:1016700021B9028842F08002028004E002884FF61D
:101680007F731A4002807047B1F5804F05D0828B7E
:101690004BF6FF731A40828303E0828B42F4804250
:1016A0008283704770B50246002400250023002085
:1016B000958A138B1B0445EA030626F07F4404EA4F
:1016C00001068E4201D1012000E0002070BD10B55E
:1016D00001460020002300228B8A0A8B120443EA71
:1016E000020424F07F4010BD0CB502460020002308
:1016F0000193009300920B0F019321F07F41019B16
:101700001BB1009B1433009303E0090C009B1833BA
:101710000093009B1B680B4201D0012000E00020D9
:101720000CBD002221F07F42D3438382704730B545
:10173000024600200023948801F0E06504EA154386
:1017400021F07F41948A0C420AD04BB1012008E07D
:101750000054004000127A0040420F00A0860100B1
:10176000002030BD002221F07F42D34383827047A6
:1017700010B50121080700F0F2F900214FF0805068
:1017800000F0EDF910BD294908627047274908614A
:10179000704701460020264A106820F0E000084308
:1017A0001060704723490860704710B5024600205A
:1017B0001F4B186820F00300104318601E4B1B6875
:1017C00043F004031C4C2360012901D130BF00E029
:1017D00020BF194B1B6823F00403174C236010BD76
:1017E0001348006840F0040011490860084600688A
:1017F00040F0020008601048006840F004000E4904
:10180000086000BF00BF30BF704701460020084A93
:1018100052680A4201D0012000E0002070470449CC
:10182000096841EA8001024A1160704700000E42D7
:1018300000700040A0000E4210ED00E0DD4800689E
:1018400040F00100DB49086008464068DA4908407A
:10185000D849486008460068D8490840D54908601A
:101860000846006820F4802008600846406820F49C
:10187000FE0048604FF41F0088607047CD4909683A
:1018800021F48031CB4A11601146096821F480218E
:101890001160B0F5803F03D0B0F5802F0ED106E087
:1018A000C449096841F48031C24A116007E0C14966
:1018B000096841F4A021BF4A116000E000BF00BFE9
:1018C000704710B501460022002300204A11012A6A
:1018D00002D1B84C236806E0022A02D1B54C236A33
:1018E00001E0B44C636A01F01F02012494401C42E1
:1018F00001D0012000E0002010BD38B5002000908C
:101900000024002500BF3120FFF7DBFF05460098CB
:10191000401C00900098B0F5A06F01D0002DF2D0CF
:101920003120FFF7CEFF08B1012400E0002420465B
:1019300038BD014600209F4A106820F0F80040EAB8
:10194000C100106070479E49086070470246002041
:10195000984B586820F47C1042EA01031843954BD9
:101960005860704796490866704701460020914AC2
:10197000506820F003000843506070478D4840686D
:1019800000F00C007047014600208A4A506820F0A1
:10199000F00008435060704701460020854A5068B7
:1019A00020F4E06008435060704701460020814AFF
:1019B000506820F4605040EAC1005060704729B17F
:1019C0007C4A527A02437B4B5A7204E0794A527A3B
:1019D0008243784B5A7270477A49086070470146D3
:1019E0000020744A506820F440400843506070471B
:1019F0000021754A11706F4A82F82010012802D028
:101A0000042808D103E001216F4A117004E0052188
:101A10006D4A117000E000BF00BF70476B4908605D
:101A200070476449096A0143624A11627047674915
:101A300044390860704730B500210022002400239B
:101A40005C4D6D6805F00C0121B1042905D0082911
:101A500023D105E05E4D056022E05D4D05601FE08D
:101A6000544D6D6805F47012524D6D6805F4803464
:101A7000022505EB92421CB9564D554305600BE01B
:101A80004C4D6D6815F4003F03D0524D5543056031
:101A900002E04F4D5543056002E04D4D056000BF2B
:101AA00000BF444D6D6805F0F00109094A4D6B5CBB
:101AB0000568DD4045603F4D6D6805F4E061090A49
:101AC000454D6B5C4568DD4085603A4D6D6805F4B9
:101AD0006051C90A404D6B5C4568DD40C560354DBD
:101AE0006D6805F44041890B3C4D6B5CC568B5FBE6
:101AF000F3F5056130BD29B12E4A526902432D4BE1
:101B00005A6104E02B4A526982432A4B5A6170475A
:101B100029B1284A92690243264B9A6104E0254A7A
:101B200092698243234B9A61704729B1214AD26955
:101B30000243204BDA6104E01E4AD26982431D4B06
:101B4000DA61704729B11B4AD2680243194BDA6047
:101B500004E0184AD2688243164BDA60704729B114
:101B6000144A12690243134B1A6104E0114A1269C4
:101B70008243104B1A61704714494039086070471E
:101B80000F49C86470470B49C87170470948406ADB
:101B900040F0807007494862704701460020054ABE
:101BA00092680A4201D0012000E0002070470149FC
:101BB00088727047001002400000FFF8FFFFF6FE39
:101BC00000004242D80042422010024080044242BB
:101BD00000127A0000093D000000002010000020E3
:101BE00010B50446BE48844208D101218014FFF795
:101BF000A9FF0021A014FFF7A5FF16E0B948844211
:101C000008D101210014FFF7AAFF00212014FFF7DB
:101C1000A6FF0AE0B448844207D10121C013FFF7B0
:101C20009EFF0021E013FFF79AFF10BD10B50022C0
:101C3000028802F441520B884C8823438C8823434A
:101C4000CC8823430C8923434C8923438C89234329
:101C5000CC8923431A430280838B4FF2FF742340C5
:101C600083830B8A038210BD2DE9F04F85B00546B2
:101C70000C464FF0000902274FF000084FF0010B0F
:101C80000026B246A88B4FF240010840A8830220EC
:101C90002884B5F81C90A068022801D100BF38E064
:101CA000A08810B94FF0010B01E04FF0020B8D48F6
:101CB000854200D100E000BF6846FFF7BCFEDDF8BA
:101CC00000A0E088B0F5007F0AD14FEA1A2000EBAF
:101CD00080004000A168B0FBF1F0401D86B20BE02F
:101CE0004FEA4B10BAFBF0F000EB80004000A16817
:101CF000B0FBF1F0401D86B20A20B6FBF0F606F00C
:101D00000108A6EB0800C0F34F074FF6FF7000EA8A
:101D10000828022F01DBFF2F02DD02274FF0000809
:101D2000E08840EA080038432884A088A189084355
:101D3000618808432188084340F4006040EA0909AB
:101D4000A5F81C9005B0BDE8F08F0021018041800E
:101D50008180C180018141818181C181072101820E
:101D600070470021018041808180C1800221816013
:101D700000218181704721B1028842F04002028037
:101D800004E002884FF6BF731A400280704721B109
:101D9000828B42F48062828304E0828B4FF6FF33B1
:101DA0001A408283704730B5002400230C110125AE
:101DB000A540ABB21AB185881D43858002E08588B5
:101DC0009D43858030BD1AB183880B43838002E038
:101DD00083888B438380704781817047014688895F
:101DE0007047A1F57E42FF3A04D0028842F4807227
:101DF000028004E002884FF6FF631A4002807047B9
:101E000021B1828842F00402828004E082884FF689
:101E1000FB731A408280704702884FF2FF731A40AA
:101E2000028002880A4302807047018841F4805191
:101E30000180704721B1028842F40052028004E020
:101E400002884DF6FF731A40028070470246002058
:101E5000012901D0108B00E0908A70470146088A62
:101E60007047B1F5804F04D1028842F4804202806D
:101E700004E002884BF6FF731A4002807047024666
:101E8000002013890B4201D0012000E000207047A0
:101E9000CA4302817047F0B50246002000240023A7
:101EA000002501F00F070126BE40B4B20B11012638
:101EB0009E40B3B2968806EA03051689264202D0F0
:101EC0000DB1012000E00020F0BD10B5002201F0AE
:101ED0000F040123A3409AB2D343038110BD000035
:101EE0000030014000380040003C004010B504467E
:101EF000FE48844208D10121C014FFF723FE0021CF
:101F0000E014FFF71FFEC4E0B4F1804F08D10121B7
:101F10000846FFF724FE00210120FFF720FEB8E06D
:101F2000F348844208D101210220FFF718FE002166
:101F30000220FFF714FEACE0EE48844208D10121F4
:101F40000420FFF70CFE00210420FFF708FEA0E0AC
:101F5000E948844208D101210820FFF700FE002152
:101F60000820FFF7FCFD94E0E448844208D10121F9
:101F70001020FFF7F4FD00211020FFF7F0FD88E0AE
:101F8000DF48844208D101212020FFF7E8FD00212D
:101F90002020FFF7E4FD7CE0DA48844208D10121EB
:101FA0004014FFF7CFFD00216014FFF7CBFD70E078
:101FB000D548844209D10121C804FFF7C3FD00219F
:101FC0004FF40020FFF7BEFD63E0D048844209D102
:101FD00001210805FFF7B6FD00214FF48010FFF73F
:101FE000B1FD56E0CA48844209D101214805FFF7F6
:101FF000A9FD00214FF40010FFF7A4FD49E0C548FA
:10200000844208D101214020FFF7A9FD0021402092
:10201000FFF7A5FD3DE0C048844208D101218020A2
:10202000FFF79DFD00218020FFF799FD31E0BB48BF
:10203000844208D101218015FFF791FD0021A015F0
:10204000FFF78DFD25E0B648844209D1012108043F
:10205000FFF778FD00214FF48030FFF773FD18E0A3
:10206000B048844209D101214804FFF76BFD0021EB
:102070004FF40030FFF766FD0BE0AB48844208D117
:1020800001218804FFF75EFD00214FF48020FFF757
:1020900059FD10BD00220288944B98420ED0994BF6
:1020A00098420BD0B0F1804F08D0914B984205D0A8
:1020B000904B984202D0904B984204D14FF68F73C8
:1020C0001A404B881A438D4B984207D08C4B98424C
:1020D00004D04FF6FF431A40CB881A4302808B8806
:1020E00083850B880385814B98420BD0854B9842A2
:1020F00008D08B4B984205D08A4B984202D08A4B2D
:10210000984201D10B7A038601238382704770B510
:10211000002400220023058C4FF6FE76354005840E
:10212000028C8388048B4FF68F752C40B51E2C4093
:102130000D882C43751E2A400D892A434D882A4359
:102140006A4DA8420BD06F4DA84208D0744DA842EA
:1021500005D0744DA84202D0734DA84213D14FF65A
:10216000F7752A404D892A434FF6FB752A408D8822
:102170002A434FF6FF652B404FF6FF552B408D89C4
:102180002B43CD892B4383800483CD8885860284AD
:1021900070BD70B5002400220023058C4FF6EF7649
:1021A00035400584028C8388048B48F6FF752C40EB
:1021B0004FF6FF452C400D884FF6FF7606EA0525C1
:1021C0002C434FF6DF752A400D8906EA05152A4390
:1021D0004D8806EA05152A43444DA84202D0494DD0
:1021E000A8421DD14FF67F752A404D894FF6FF76E4
:1021F00006EA05152A434FF6BF752A408D8806EA80
:1022000005152A434FF6FF352B404FF2FF752B4043
:102210008D8906EA85052B43CD8906EA85052B4382
:1022200083800483CD880587028470BD70B5002447
:1022300000220023058C4FF6FF6635400584028C92
:102240008388848B4FF68F752C404FF6FC752C409D
:102250000D882C434FF6FF552A400D894FF6FF7627
:1022600006EA05252A434D8806EA05252A431F4D1F
:10227000A84202D0234DA8421DD14FF2FF752A403B
:102280004D894FF6FF7606EA05252A434FF6FF35BE
:102290002A408D8806EA05252A434EF6FF752B4015
:1022A0004DF6FF752B408D8906EA05152B43CD8928
:1022B00006EA05152B4383808483CD8885870284B5
:1022C00070BD70B5002200230024058C4EF6FF7609
:1022D00035400584038C8488828B48F6FF752A403C
:1022E0004FF6FF452A400D8820E00000002C0140F9
:1022F0000004004000080040000C004000100040B6
:102300000014004000340140004C014000500140E6
:102310000054014000180040001C00400020004014
:102320000040014000440140004801404FF6FF7664
:1023300006EA05252A434DF6FF752B400D8906EA6E
:1023400005352B434D8806EA05352B43FA4DA84247
:1023500002D0FA4DA84208D14BF6FF752C408D896A
:102360004FF6FF7606EA85152C4384808283CD885C
:10237000A0F84050038470BD828B4FF2FF331A40A7
:102380008283828B4FF6FF7303EA01231A43828311
:102390007047F0B50C461546002200210026078C38
:1023A0004EF6FF7C07EA0C070784828B018C4FF600
:1023B000FF7707EA043640F6FF473A404FF6FF77CB
:1023C00007EA05273A434FF6FF7707EA03373A4310
:1023D000D94FB8420ED0D94FB8420BD0B0F1804F90
:1023E00008D0D74FB84205D0D64FB84202D0D64F0A
:1023F000B84206D14DF6FF77394046F4805739434D
:1024000005E047F6FF57394044F48057394382834B
:102410000184F0BD828B4FF6F3731A408283828B66
:102420000A4382837047F0B50C461546002200210E
:102430000026078C4FF6FF6C07EA0C070784828B97
:10244000018C4FF6FF7707EA04264FF60C773A40E7
:102450004FF6FF7707EA03172F433A43B64FB842C8
:102460000ED0B64FB8420BD0B0F1804F08D0B44F69
:10247000B84205D0B34FB84202D0B34FB84206D1EC
:102480004FF6FF57394046F48077394305E04FF265
:10249000FF57394044F48077394382830184F0BD8B
:1024A000028B4FF2FF331A400283028B4FF6FF7309
:1024B00003EA01231A4302837047F0B50C46154620
:1024C000002200210026078C4FF6EF7C07EA0C075C
:1024D0000784028B018C4FF6FF7707EA041640F65B
:1024E000FF473A404FF6FF7707EA03373A434FF684
:1024F000FF7707EA05273A438F4FB8420ED08F4F38
:10250000B8420BD0B0F1804F08D08D4FB84205D003
:102510008C4FB84202D08C4FB84206D14FF6DF77CD
:10252000394046F01007394305E04FF65F773940F0
:1025300044F01007394302830184F0BD028B4FF64B
:10254000F3731A400283028B0A4302837047F0B58B
:102550000C46154600220021068C4FF6FE773E40C1
:102560000684028B018C4FF60C7632407E1C06EA04
:1025700003162E433243704EB0420ED06F4EB0421F
:102580000BD0B0F1804F08D06D4EB04205D06D4EEB
:10259000B04202D06C4EB04206D14FF6FD763140CB
:1025A00044F00106314305E04FF6F576314044F042
:1025B0000106314302830184F0BD70B505460C4627
:1025C0005D4885420ED05D4885420BD0B5F1804F05
:1025D00008D05B48854205D05A48854202D05A4807
:1025E000854200D100E000BF208850B92389A2882D
:1025F00061882846FFF7ABFFE1882846FFF79EFF7A
:1026000025E0208804280AD12389A28861882846E9
:10261000FFF753FFE1882846FFF742FF17E02088C5
:1026200008280AD12389A28861882846FFF7FBFE83
:10263000E1882846FFF7EEFE09E02389A288618839
:102640002846FFF7A6FEE1882846FFF795FE70BDF5
:102650002DE9F04105460C4600260127608808B99F
:10266000022600E00026A088012801D1022700E010
:1026700001272088A0B92389A28861882846FFF70E
:1026800066FFE1882846FFF759FF23893A4631461D
:102690002846FFF712FFE1882846FFF701FF13E005
:1026A0002389A28861882846FFF707FFE18828462A
:1026B000FFF7F6FE23893A4631462846FFF747FFE3
:1026C000E1882846FFF73AFFBDE8F0810A884B8889
:1026D0001A438B881A43CB881A430B891A434B89B8
:1026E0001A438B891A43A0F8442070474FF6FF71B4
:1026F000818000210180C1804180017270470021EA
:10270000018041808180C180018141818181C181BD
:102710007047002101804180012181800021C1801A
:10272000018170470021018041808180C180018149
:102730004181818170470000002C0140003401403C
:102740000004004000080040000C004021B1028855
:1027500042F00102028004E002884FF6FE731A4044
:102760000280704731B1B0F8442042F40042A0F832
:10277000442005E0B0F84420C2F30E02A0F8442043
:1027800070471AB183890B43838102E083898B43AD
:10279000838170478182704741EA0203A0F8483084
:1027A00070471AB183890B43838102E083898B438D
:1027B0008381704701894FF6F8721140018170479B
:1027C0000A46002101894FF68F7319401143018198
:1027D000704730B504460D4629462046FFF7F0FF06
:1027E000208940F00700208130BD2DE9F0410446EA
:1027F0000D4616461F46602D06D13B460122314646
:102800002046FFF75AFE05E03B46012231462046AE
:10281000FFF79DFE29462046FFF7D2FF208940F0B2
:1028200007002081BDE8F08130B50C460021018908
:10283000C9B24FF6FF7505EA032515432543294321
:10284000018130BD2DE9F04105460E4617469846F8
:10285000002443463A4631462846FFF7E5FF2C89D7
:102860004FF6F870044044F007044FF68F700440B0
:1028700044F070042C81BDE8F081F0B504460D46AB
:1028800016461F463B46324629462046FFF7CCFFF8
:10289000208940F480402081F0BD0185828270470C
:1028A0000A46002101884FF68F73194011430180B9
:1028B0007047F0B50C4615461E4600210022002345
:1028C0000189028B038C4FF6F877394021434FF68C
:1028D000FC473A4040F201173A434FF6DD773B4060
:1028E0004FF6FF7707EA06172F433B430181028328
:1028F0000384F0BD0A460021018B4FF68F73194007
:102900001143018370470A460021018B48F6FF738B
:1029100019404FF6FF7303EA0223194301837047FE
:102920000A460021818B4FF68F7319401143818332
:1029300070470A460021818B48F6FF7319404FF615
:10294000FF7303EA022319438183704721B1028890
:1029500042F08002028004E002884FF67F731A4042
:102960000280704721B1828842F00402828004E034
:1029700082884FF6FB731A408280704721B18288AB
:1029800042F00802828004E082884FF6F7731A4012
:102990008280704721B1828842F00102828004E087
:1029A00082884FF6FE731A40828070470A460021E3
:1029B000018B4FF6F77319401143018370470A46A4
:1029C0000021018B4FF2FF7319404FF6FF7303EAAA
:1029D00002231943018370470A460021818B4FF679
:1029E000F77319401143818370470A460021818B98
:1029F0004FF2FF7319404FF6FF7303EA02231943A6
:102A0000818370470A460021018B4FF6FB73194002
:102A10001143018370470A460021018B4FF6FF33B3
:102A200019404FF6FF7303EA0223194301837047ED
:102A30000A460021818B4FF6FB73194011438183B5
:102A400070470A460021818B4FF6FF3319404FF63D
:102A5000FF7303EA02231943818370470A4600216A
:102A6000018B4FF67F7319401143018370470A466B
:102A70000021018BC1F30E014FF6FF7303EA02231D
:102A80001943018370470A460021818B4FF67F73FB
:102A900019401143818370470A460021818BC1F39D
:102AA0000E014FF6FF7303EA022319438183704737
:102AB0000A460021018C4FF6FD7319401143018431
:102AC00070470A460021018C4FF6F77319401143F5
:102AD000018470470A460021018C4FF6DF731940CC
:102AE0004FF6FF7303EA02131943018470470A4645
:102AF0000021018C4FF67F7319404FF6FF7303EAF4
:102B000002131943018470470A460021018C4FF6D5
:102B1000FF5319404FF6FF7303EA02231943018460
:102B200070470A460021018C4FF2FF7319404FF69F
:102B3000FF7303EA02231943018470470A46002108
:102B4000018C4DF6FF7319404FF6FF7303EA023311
:102B500019430184704730B5002301248C40A3B28F
:102B6000048C9C430484048C02FA01F5ADB22C431E
:102B7000048430BD30B5002304248C40A3B2048CFF
:102B80009C430484048C02FA01F5ADB22C43048406
:102B900030BD70B5034600200024184618300125CA
:102BA0008D40ACB21D8CA5431D8409B1082909D103
:102BB00000EB6100056825F07005056005681543A8
:102BC00005600EE00D1FC5F34E052844056825F489
:102BD000E045056005684FF6FF7606EA02263543B4
:102BE000056070BD21B1028842F00202028004E05B
:102BF00002884FF6FD731A400280704721B10288A7
:102C000042F00402028004E002884FF6FB731A408F
:102C10000280704721B1828842F08002828004E005
:102C200082884FF67F731A408280704702884FF681
:102C3000F7731A40028002880A4302807047828834
:102C40004FF68F731A40828082880A4382807047D1
:102C500002894FF6F8731A40028102890A43028101
:102C6000704702894FF67F731A40028102890A4336
:102C700002817047818470478185704781867047E3
:102C80000187704781877047A0F84010704702881D
:102C90004FF6FF431A40028002880A4302807047C1
:102CA0000146888E70470146088F70470146888F1D
:102CB00070470146B1F8400070470146888C704764
:102CC0000146088D704702460020138A0B4201D04E
:102CD000012000E000207047CA430282704730B5EF
:102CE0000246002000230024158A05EA0103958985
:102CF00005EA010413B10CB1012000E0002030BD51
:102D0000CA4302827047000010B50446FB48844263
:102D100009D101218803FEF715FF00214FF48040FF
:102D2000FEF710FF32E0F648844209D10121480441
:102D3000FEF715FF00214FF40030FEF710FF25E0ED
:102D4000F048844209D101218804FEF708FF0021E0
:102D50004FF48020FEF703FF18E0EB48844209D1CE
:102D60000121C804FEF7FBFE00214FF40020FEF70E
:102D7000F6FE0BE0E548844208D101210805FEF784
:102D8000EEFE00214FF48010FEF7E9FE10BD2DE9A4
:102D9000F04786B005460E460024A24600BFA14675
:102DA0000027B08900B100BF2F462C8A4CF6FF7077
:102DB0000440F08804432C82AC894EF6F3100440A2
:102DC000B08831890843718908430443AC81AC8AD7
:102DD0004FF6FF400440B0890443AC8201A8FEF7DF
:102DE0002AFEC648874202D1DDF810A001E0DDF8D6
:102DF0000CA0A88910F4004F08D00AEBCA0000EB21
:102E00000A1031684900B0FBF1F807E00AEBCA008C
:102E100000EB0A1031688900B0FBF1F86420B8FBC0
:102E2000F0F004012009642101FB1089A88910F445
:102E3000004F08D0322000EBC900B0FBF1F000F0E9
:102E40000700044308E0322000EB09106421B0FBC6
:102E5000F1F000F00F0004432C8106B0BDE8F087CC
:102E60004FF41651016000218180C18001810C2145
:102E7000418100218181704710B502460020108AEF
:102E80004FF2FF0318400B884C8823438C88234360
:102E9000CC8823431843108210BD0021018041805B
:102EA0008180C180704721B1828942F400528281C1
:102EB00004E082894DF6FF731A4082817047F0B5B5
:102EC00003460024002600250020A1F510676A3F74
:102ED00000D100BF1846C1F3421401F01F060127BC
:102EE00007FA06F5012C01D10C3004E0022C01D1C7
:102EF000103000E014301AB107682F43076002E079
:102F00000768AF430760F0BD1AB1838A0B43838221
:102F100002E0838A8B4383827047028A4FF6F07304
:102F20001A400282028A0A430282704782894FF263
:102F3000FF731A40828182890A438281704721B1DE
:102F4000828942F00202828104E082894FF6FD7399
:102F50001A4082817047028A4FF6DF731A4002825C
:102F6000028A0A430282704721B1028A42F48042F7
:102F7000028204E0028A4BF6FF731A400282704715
:102F8000C1F308028280704701468888C0F30800B8
:102F90007047818941F0010181817047028BD2B273
:102FA0000283028B42EA012202837047028B02F401
:102FB0007F420283028B0A430283704721B1828AD7
:102FC00042F02002828204E0828A4FF6DF731A40C8
:102FD0008282704721B1828A42F01002828204E02C
:102FE000828A4FF6EF731A408282704721B1828A3B
:102FF00042F00802828204E0828A4FF6F7731A4098
:103000008282704721B1828942F40042828103E0CA
:103010008289C2F30E028281704721B1828A42F412
:103020000062828204E0828A4FF2FF731A40828239
:103030007047828A4FF6FB731A408282828A0A4363
:103040008282704721B1828A42F00202828204E0C9
:10305000828A4FF6FD731A40828270470246002032
:10306000B1F5007F00D100BF13880B4201D00120D1
:1030700000E00020704701F40072B2F5007F00D13B
:1030800000BFCA430280704770B502460024002387
:1030900000250020A1F510666A3E00D100BFC1F3F3
:1030A000421501F01F03012606FA03F3012D02D198
:1030B0009689334006E0022D02D1168A334001E0A2
:1030C000968A33400C12012606FA04F4168834401E
:1030D00013B10CB1012000E0002070BD10B500223A
:1030E0000023A1F510646A3C00D100BF0A1201243C
:1030F0009440A3B2DC43048010BD000000380140BE
:103100000044004000480040004C00400050004097
:1031100002F06AFA00F06AF807E00448007820B18B
:1031200001F07EFB002001490870F6E74400002012
:103130008B490978491C8A4A1170114609780A2975
:1031400004D1002111704168491C4160416A09782D
:1031500021B101291CD0022946D132E001783C2955
:1031600015DCD0E90112891A027891420FD9C168A1
:10317000497829B98169C98811B98169097B19B16F
:103180000121426A517002E00221426A51702BE033
:1031900001783C2904DAD0E90112891A022903D204
:1031A0000021426A51700BE0C168497841B98169D8
:1031B000C98829B98169097B11B90221426A517014
:1031C00012E001783C2904DAD0E90112891A0229B7
:1031D00003D20021426A517005E0C168497811B1FB
:1031E0000121426A517000BF00BF704710B55D48B1
:1031F0005D4908615D48C8605D4848615D48886117
:103200005D48C8615D4808625D4848625D48886203
:103210004620087001F0C2F810BD81698A79816A80
:103220000A76C1680A78816A0A7301694A78816AF4
:1032300081F82420C1698A88816ACA86C1698A881E
:10324000816AA1F8F620016949880AB2816AA1F869
:103250001221816909890AB2816AA1F804210169F0
:103260004A78816A81F81C210169097801F001011D
:10327000454A1278914212D00169097801F00101A2
:10328000414A11700122816A81F828213E4909785A
:1032900009B13EA200E040A2816AC1F82C21016977
:1032A0000978C1F340013F4A1278914212D0016976
:1032B0000978C1F340013B4A11700122816A81F80B
:1032C00034213849097809B137A200E038A2816A6F
:1032D000C1F83821C1680978374A1278914210D074
:1032E000C1680978344A11700122816A81F840214D
:1032F0003149097809B131A200E033A2816AC1F8ED
:103300004421C1684978334A1278914210D0C1688B
:103310004978304A11700122816A81F84C212D4987
:10332000097809B12CA200E02FA2816AC1F85021CE
:103330008169C988304A1278914210D081698979AF
:103340002D4A11700122816A81F858212A49097891
:1033500009B12AA200E02DA2816AC1F85C21704760
:10336000140000203400002054000020200300201E
:103370003D000020000900202E0000200603002050
:103380002C0000208000002015000020436861729E
:1033900067696E673A5900004368617267696E67D2
:1033A0003A4E00001600002046756C6C3A59000039
:1033B00046756C6C3A4E000017000020424C453AAE
:1033C000204F6E2C00000000424C453A4F66662CA0
:1033D0000000000018000020436F6E6E6563746586
:1033E0006420202000000000446973636F6E6E65E6
:1033F0006374656400000000190000204C656420BF
:1034000044656C61793A2020202000004C656420DE
:1034100044656C61793A204F6666000010B5044639
:10342000607890B1012184F86C1084F8AA1084F8B7
:10343000841084F8C21084F8781084F8B71084F8E7
:10344000901084F89C100020607094F864000A28A2
:1034500030D2DFE800F0050C131718191A1B2128C9
:10346000002184F89A10012184F86A1022E00021DA
:1034700084F86A10012184F8B5101BE0002184F85B
:10348000B51000BF00BF00BF00BF00BF94F86400CC
:10349000401E84F8C4000DE0002184F8C41001210E
:1034A00084F88E1006E0002184F88E10012184F843
:1034B0009A1000BF00BF002104F1680001F0CAFEAD
:1034C000002104F1740001F0C5FE002104F1800028
:1034D00001F0C0FE002104F18C0001F0BBFE0021D0
:1034E00004F1980001F0B6FE002104F1B00001F0F3
:1034F0004FFE002104F1A40001F0FCFC002104F1C6
:10350000C00001F0CCFC10BD10B5044694F8D40006
:10351000FC490978884201D16078F0B1012184F832
:10352000DA1084F8EE1084F81E1184F80A1184F879
:10353000281184F8341184F8401184F84C1184F86F
:10354000581184F8FC1084F8641184F8701194F810
:10355000D400EC4908700020607094F8D40010B1D9
:10356000012841D135E0002104F1D80001F097FC99
:10357000002104F1EC0001F076FD002104F58C70CF
:1035800001F0B8FC002104F5847001F06CFD00210D
:1035900004F5927001F05EFE002104F5987001F0D0
:1035A00059FE002104F59E7001F054FE002104F53F
:1035B000A47001F04FFE002104F5AA7001F04AFE4C
:1035C000B4F8040120B1002104F1FA0001F04BFD30
:1035D0000AE0002104F5B67001F03CFE002104F57C
:1035E000B07001F037FE00BF00BF10BD10B504463B
:1035F00094F88001C4490978884202D16078002893
:1036000026D0012184F88C1184F8821184F8DC1111
:1036100084F8D21184F8E81184F8F71184F80412C0
:1036200084F8131284F8201284F82F1284F8981169
:1036300084F8A71184F8B41184F8C31184F84812EF
:1036400084F83C120020607094F88001AE49087044
:1036500094F87801092847D2DFE800F0050C131A26
:1036600021282F363F00002184F83A12012184F8E6
:103670008A1139E0002184F88A11012184F8DA11D5
:1036800032E0002184F8DA11012184F8F5112BE0F1
:10369000002184F8F511012184F8111224E00021A1
:1036A00084F81112012184F82D121DE0002184F804
:1036B0008A11012184F8C11116E0002184F8C1119A
:1036C000012184F8A5110FE0002184F82D1284F85F
:1036D000A511012184F8461206E0002184F8461263
:1036E000012184F83A1200BF00BF002104F5BE702A
:1036F00001F000FC002104F5C47001F0ABFD0021D5
:1037000004F5117001F0A6FD002104F50E7001F022
:10371000A1FD94F8800140B3002104F5E67001F0AA
:10372000E9FB002104F5EC7001F094FD002104F5A3
:10373000F27001F08FFD002104F5F87001F028FD12
:10374000002104F5007001F085FD002104F50370EF
:1037500001F01EFD002104F5077001F07BFD002142
:1037600004F50A7001F014FD13E0002104F5CA709D
:1037700001F070FD002104F5D07001F009FD002179
:1037800004F5D87001F066FD002104F5DE7001F04B
:10379000FFFC10BD3EB50446A07808B9607868B15A
:1037A000002060700021B4F90600584A0823CDE9D2
:1037B000002002914022202002F087FE3EBD3EB54F
:1037C0000446A07808B9607868B1002060700021D4
:1037D000B4F906004E4A0823CDE9002002914022A8
:1037E000202002F072FE3EBD3EB50446A07808B926
:1037F0006078F0B1002060704648407801280CDC09
:103800000021B4F90600444A0823CDE900200291C2
:103810004022202002F059FE0BE00021B4F90600FE
:103820003E4A0823CDE9002002914022202002F0E8
:103830004CFE3EBD70B50446B4F9065025B9384873
:10384000008808B9607870B10121A176A17384F86D
:10385000261084F82E1084F83E1084F852100020B0
:10386000607002F048FC2E480580294604F12C00C7
:1038700001F0F9FB294604F1140001F03BFB294655
:1038800004F1080001F036FB294604F1200001F0A4
:1038900031FB294604F1500001F001FB294604F1F7
:1038A0003C0001F0FCFA70BD8178052956D2DFE8B2
:1038B00001F00306173947000022C2804EE0C2889B
:1038C000C178511A0AB2C280B0F9061011F1800F06
:1038D00005DA01790170032181708022C2803DE008
:1038E000C288C17811440AB2C280B0F9061080299A
:1038F00006DD01790170042181706FF07F02C280C2
:103900002CE000002500002024000020CE780008D4
:10391000CE7A000834000020CE7C0008CE76000865
:1039200022000020C288C178511A0AB2C280B0F9C0
:103930000610002903DA002181700022C2800DE008
:10394000C288C17811440AB2C280B0F906100029B9
:1039500003DD002181700022C28000BF00BF7047DC
:1039600010B504462046FFF79FFF2078072821D294
:10397000DFE800F004080C1014181C002046FFF7C4
:1039800059FF17E02046FFF72FFF13E02046FFF70F
:1039900016FF0FE02046FFF7FDFE0BE02046FFF785
:1039A00025FE07E02046FFF7AFFD03E02046FFF7C6
:1039B00035FD00BF00BF10BD70B504460D460020A8
:1039C000A07025700120607002F095FB70BD70B58D
:1039D00004460D46A878C0F3800078B1002184F831
:1039E0006A1084F8B51084F8C41084F88E1084F836
:1039F0009A1003212046FFF7DFFF36E16878C0F315
:103A0000800058B114F8640F401C207014F8640949
:103A10000A28F2D1002084F8640026E1687810F0CA
:103A2000010F7DD094F864000A280CD2DFE800F082
:103A3000050C222E3944505C688094F8A80080F070
:103A4000010184F8A8107BE094F8B300142809DB86
:103A500094F8B3000A3884F8B30094F8B31084F8EB
:103A6000B81006E00A2184F8B31094F8B31084F873
:103A7000B81065E0F8488079401EF749887108461B
:103A80008079632801DD6320887159E0F24840792C
:103A9000401EF14948710846407908B90C20487128
:103AA0004EE0ED480079401EEB4908710846007968
:103AB00008B91F20087143E0E7488078401EE649B6
:103AC000887008468078172801DD1720887037E055
:103AD000E1484078401EE0494870084640783B285D
:103AE00001DD3B2048702BE0DB480078401EDA49BE
:103AF0000870084600783B2801DD3B2008701FE075
:103B000094F8B300D549087094F8A800D449087017
:103B1000087802F00EF8D04801F0A2FD002100E084
:103B20000FE084F88E1003212046FFF745FF07E0E1
:103B3000002184F89A1003212046FFF73DFF00BFC3
:103B400093E06878C0F340000028F9D094F864004E
:103B50000A280CD2DFE800F0050C222E3A46525E0D
:103B60006A8094F8A80080F0010184F8A8107BE036
:103B700094F8B3003C2809DC94F8B3000A3084F8C8
:103B8000B30094F8B31084F8B81006E0462184F826
:103B9000B31094F8B31084F8B81065E0AE4880799B
:103BA000401CAD49887108468079632801DD0020FA
:103BB000887159E0A8484079401CA74948710846D7
:103BC00040790C2801DD012048714DE0A2480079C0
:103BD000401CA1490871084600791F2801DD012019
:103BE000087141E09C488078401C9B4988700846D9
:103BF0008078172801DD0020887035E096484078ED
:103C0000401C95494870084640783B2801DD00205B
:103C1000487029E090480078401C8F490870084699
:103C200000783B2801DD002008701DE094F8B30007
:103C30008A49087094F8A80089490870087801F04A
:103C400078FF854801F00CFD002184F88E100321D7
:103C50002046FFF7B1FE07E0002184F89A10032107
:103C60002046FFF7A9FE00BF00BF70BD70B5044637
:103C70000D466878C0F3800020B102212046FFF78E
:103C80009BFE18E0687810F0010F08D002F033FABC
:103C900094F8D40080F0010084F8D4000BE0687838
:103CA000C0F3400038B102F026FA94F8D40080F056
:103CB000010084F8D40070BD70B504460D46A878A4
:103CC000C0F38000E0B1002184F88A1184F8DA1191
:103CD00084F8F51184F8111284F82D1284F8A511D6
:103CE00084F8C11184F8461284F83A1218225D490A
:103CF0005D4803F081FC01212046FFF75DFE1BE2D9
:103D00006878C0F3800048B394F87801092824D279
:103D1000DFE800F0051B1C1D1018191A140094F898
:103D2000800118B1012084F8780102E0052084F8B0
:103D3000780112E0072084F878010EE0002084F872
:103D400078010AE000BF00BF00BF00BF00BF94F8C9
:103D50007801401C84F8780100BFEDE1687810F02C
:103D6000010F78D094F87801092812D2DFE800F02A
:103D700005121D416594B6DCE40094F8800180F0E2
:103D8000010184F8801194F880013749087002F02D
:103D9000B2F9DEE094F8D00180F0010184F8D0118E
:103DA00094F8D00130490873D3E094F8F301052862
:103DB00009DB94F8F301401F84F8F30194F8F31140
:103DC00084F8F81106E0002184F8F31194F8F31157
:103DD00084F8F81194F8F80100EB800041002248C3
:103DE00001820646337BB28A718A308A02F019FC5E
:103DF000AFE094F80F02052809DB94F80F02401F8A
:103E000084F80F0294F80F1284F8141206E00021CF
:103E100084F80F1294F80F1284F8141294F8140214
:103E200000EB80004100104841820646337BB28A95
:103E3000718A308A02F0F5FB8BE094F82B0205289A
:103E400014DB94F82B02401F84F82B0294F82B12F9
:103E500084F8301211E07DE01A00002054000020A8
:103E600020030020D002002000090020002184F857
:103E70002B1294F82B1284F8301294F8300200EBD5
:103E800080004100FE4881820646337BB28A718AF7
:103E9000308A02F0C6FB5CE094F8BF01052809DB1C
:103EA00094F8BF01401F84F8BF0194F8BF1184F853
:103EB000C41106E0002184F8BF1194F8BF1184F802
:103EC000C41194F8C40100EB80004000EC498880E4
:103ED0000A469168908802F08BFB3AE094F8A301BF
:103EE00005280BDB94F8A301401F84F8A30194F884
:103EF000A3014006010E84F8A81108E0002184F80F
:103F0000A31194F8A3014006010E84F8A81194F8B7
:103F1000A801C0EB00108100D94881600246916879
:103F2000908802F065FB14E0002184F8461201211C
:103F30002046FFF741FD0CE0002184F83A121822D8
:103F4000D049CF4803F058FB01212046FFF734FD4C
:103F500000BFF1E06878C0F340000028F9D094F881
:103F60007801092812D2DFE800F005121D416589A9
:103F7000ABD1D90094F8800180F0010184F8801160
:103F800094F88001BE49087002F0B5F8D3E094F8C7
:103F9000D00180F0010184F8D01194F8D001B84923
:103FA0000873C8E094F8F3015F2809DC94F8F30182
:103FB000401D84F8F30194F8F31184F8F81106E039
:103FC000642184F8F31194F8F31184F8F81194F84B
:103FD000F80100EB80004100A94801820646337BCE
:103FE000B28A718A308A02F01CFBA4E094F80F02B6
:103FF0005F2809DC94F80F02401D84F80F0294F842
:104000000F1284F8141206E0642184F80F1294F859
:104010000F1284F8141294F8140200EB800041008F
:10402000974841820646337BB28A718A308A02F011
:10403000F8FA80E094F82B025F2809DC94F82B0250
:10404000401D84F82B0294F82B1284F8301206E0FD
:10405000642184F82B1294F82B1284F8301294F80F
:10406000300200EB80004100854881820646337BA8
:10407000B28A718A308A02F0D4FA5CE094F8BF0107
:104080005F2809DC94F8BF01401D84F8BF0194F853
:10409000BF1184F8C41106E0642184F8BF1194F8BC
:1040A000BF1184F8C41194F8C40100EB80004000F3
:1040B000734988800A469168908802F099FA3AE03C
:1040C00094F8A30137280BDC94F8A301401D84F871
:1040D000A30194F8A3014006010E84F8A81108E09A
:1040E0003C2184F8A31194F8A3014006010E84F842
:1040F000A81194F8A801C0EB00108100604881600D
:1041000002469168908802F073FA14E0002184F866
:10411000461201212046FFF74FFC0CE0002184F8F5
:104120003A1218225749564803F066FA01212046F0
:10413000FFF742FC00BF00BF70BD10B5022A00DDD2
:10414000022203718170C27010BD70B504460D4625
:104150006878C0F3400030B102231A461946204661
:10416000FFF7EBFF33E0687810F0010F06D0002373
:10417000022201212046FFF7E0FF28E06878C0F323
:10418000800020B34048017884F8A810002084F80B
:1041900064003E48017884F8B310017884F8B810C0
:1041A0003B48C07D3B4988713948807D487138481B
:1041B000407D08713648C07C88703548807C4870E6
:1041C0003348407C087006212046FFF7F5FB70BDA0
:1041D00070B505460C466078C0F3400030B101234D
:1041E000022211462846FFF7A8FF15E0607810F07C
:1041F000010F06D00323022201212846FFF79DFF6D
:104200000AE06078C0F3800030B1002085F8D40067
:1042100005212846FFF7D0FB70BD70B504460D465A
:104220006878C0F3400030B10023022211462046D6
:10423000FFF783FF09E0687810F0010F05D0022333
:104240001A4601212046FFF778FF6878C0F3800006
:10425000002858D0002084F878010948017884F8B3
:10426000D01180683B307821B0FBF1F084F8A301D5
:1042700094F8A3014006010E84F8A81100480BE051
:1042800000090020D002002020030020540000205C
:10429000060300201A00002080880A2190FBF1F01C
:1042A00084F8BF0194F8BF1184F8C411ED48017B74
:1042B00084F8D011008A0A2190FBF1F084F8F30110
:1042C00094F8F31184F8F811E648408A0A2190FB2B
:1042D000F1F084F80F0294F80F1284F81412E148F8
:1042E000808A0A2190FBF1F084F82B0294F82B12BB
:1042F00084F830121822DB49DB4803F07DF90421F1
:104300002046FFF759FB70BD70B505460C46607836
:1043100010F0010F06D00123022219462846FFF7AC
:104320000CFF09E06078C0F3400028B103230222AB
:1043300011462846FFF701FF70BD70B504460D46D3
:104340002078072828D2DFE800F004090E13181D92
:10435000220029462046FFF7D7FF1DE029462046C8
:10436000FFF75BFF18E029462046FFF731FF13E017
:1043700029462046FFF7E9FE0EE029462046FFF7D2
:104380009BFC09E029462046FFF770FC04E0294623
:104390002046FFF71CFB00BF00BF70BD0EB5B3A0E9
:1043A000006802907C208DF80800B148B1490223D2
:1043B0000F22CDE900100021562000F092FDAC48FC
:1043C0000C38AD4902230A22CDE9001000216A20F1
:1043D00000F087FDA6480C30A84902230A22CDE947
:1043E00000100021762000F07CFDA148183002ABBF
:1043F000022201210090002000F09BFD9C48283003
:104400009F4B002202210090104600F083FA98484A
:104410003C309B4B022200210090084600F07AFAC3
:10442000934B543397A20021082000F00FFF904BCC
:10443000603397A20121002000F008FF8C4B6C3301
:1044400096A20321002000F001FF894B783396A249
:104450000721002000F0FAFE854B843395A2072146
:10446000642000F0F3FE8248903094490123082232
:10447000CDE900100021084600F033FD7C489C3057
:104480008FA3492202210090002000F05BFE7848B3
:10449000AC308C4B012204210090192000F03AFA34
:1044A0007348C430764B032200210090084600F088
:1044B00031FA6F48D83002AB02220121009000206F
:1044C00000F037FD80486D4902230A22CDE9001033
:1044D0000121762000F005FD7B4810387BA30222E5
:1044E00011460090002000F024FD774B0C3378A299
:1044F0000321002000F0AAFE734B183377A203219A
:10450000482000F0A3FE704B243376A20521002042
:1045100000F09CFE6C4B303375A20521362000F074
:1045200095FE694B3C3376A20721002000F08EFEF9
:1045300065481E3862A30022072100903C2000F04D
:10454000F8FC614B483373A206212E2000F07EFE5A
:104550005D4B543373A20721282000F077FE5A48A0
:104560006430564901230822CDE900100021084695
:1045700000F0B7FC544B70336EA200210A2000F00B
:1045800065FE514B98336DA20221002000F05EFEC3
:104590004D48A4306BA3642203210090002000F05A
:1045A000D1FD494B7C3368A20421002000F04EFE6F
:1045B0004548883066A33C2205210090002000F089
:1045C000C1FD4148B4303D4901230822CDE9001026
:1045D0000021402000F085FC3B4BC0335EA200214F
:1045E0004A2000F033FE384BCC335DA2012100207D
:1045F00000F02CFE3448D83052A3642202210090EF
:10460000002000F09FFD304BE83357A2032100202B
:1046100000F01CFE2C48F4304AA3642204210090D0
:10462000002000F08FFD524B52A20521002000F027
:104630000DFE4F480C3043A3642206210090002059
:1046400000F080FD4A4B283317A20721002000F01C
:10465000FDFD474B1C3317A20721642000F0F6FD37
:104660000EBD000000090020D002002020432000E1
:1046700094000020D2860008AA8600081E86000842
:1046800017030020426C7565746F6F74680000003A
:1046900053637265656E204F66663A0054696D65B6
:1046A000205365743A0000005361766526457869A9
:1046B0007400000045786974000000000E8700084F
:1046C000732020001A0000209801002056202000AE
:1046D0004368617267696E673A4E000046756C6C9C
:1046E0003A4E0000424C453A4F66662C00000000EE
:1046F000446973636F6E6E656374656400000000E7
:104700004C65642044656C61793A204F66662020D0
:1047100020000000536D6172744C45442056322EC7
:104720003000000044657369676E6564206279201B
:1047300048470000436F6C6F720000004C69676867
:10474000743A00002020200044656C61793A000032
:104750006D696E202020000042726561746800005F
:104760005265643A00000000477265656E3A0000C9
:104770009C020020426C75653A00000010B5574855
:1047800001F0F2FB55495648FFF7D7FD01F01CFA3E
:104790005448007808B901F071FD5048007818B10C
:1047A000514840685049886010BD10B54F4802F02C
:1047B000B3FD10BD7047704710B54A48007828B95E
:1047C0004948FEF72AFD4648FFF7CAF810BD10B564
:1047D000474801F048FF10BD10B5464801F0F6FA11
:1047E000454801F031F8444801F03CF83E48FEF7F6
:1047F0009FFC3C4800F0BBFE3E484078012803DCAB
:1048000001203B49487002E000203949487010BD42
:1048100010B53A4801F016F9384801F021F910BDF9
:1048200010B5FFF7ABFF36480078401C34490870DC
:1048300008460078012804D0022805D0032839D181
:1048400035E0FFF7B2FF47E02E480078401C2D49C5
:1048500008700846007803281FD12B480078401CB8
:10486000294908700846007803280DD127480078A8
:10487000401C26490870084600780A2804DBFFF728
:10488000C7FF0020214908701F480078052804DB75
:10489000FFF7A2FF00201C4908701A48007805287D
:1048A00004DBFFF794FF00201649087014E0FFF7BF
:1048B00081FF11E0164801780078401C144A1070FE
:1048C00011F0010F02D0FFF776FF01E0FFF774FF50
:1048D00000200B49087000BF00BF10BD3D00002044
:1048E000800000202C00002054000020015500080A
:1048F0000009002034000020060300202E000020C4
:104900002600002028000020290000202A00002086
:104910002700002010B5029C20706170E270A36037
:1049200010BDF8B504460D46A0680678207BB0425D
:1049300001D1A07870B1FE49A06800F0CDFF002041
:104940000090617820782B46F94A01F02EFE2673FC
:104950000020A070F8BDFEB504460F4600250026D5
:104960002079012800D100E0002005466079012867
:1049700000D100E000200646A0688179A07C814239
:1049800003D1B54201D1A07828B332208DF80400BC
:1049900030208DF80500A06880790A2190FBF1F0A5
:1049A0003030C0B28DF80600A068807990FBF1F23B
:1049B00001FB12003030C0B28DF8070000208DF8E6
:1049C00008000095617820783B4601AA01F0EDFDD2
:1049D000A0688179A1742079022801D1012000E02A
:1049E000002005466079022801D1012000E0002066
:1049F0000646A0684179607C814203D1B54201D16D
:104A0000A07808B3A06840790A2190FBF1F030301B
:104A1000C0B28DF80400A068407990FBF1F201FB70
:104A200012003030C0B28DF8050000208DF806006D
:104A30000095617822782A32D0B23B4601AA01F073
:104A4000B4FDA068417961742079032801D1012067
:104A500000E0002005466079032801D1012000E034
:104A600000200646A0680179207C814203D1B5422E
:104A700001D1A07808B3A06800790A2190FBF1F079
:104A80003030C0B28DF80400A068007990FBF1F2DC
:104A900001FB12003030C0B28DF8050000208DF807
:104AA00006000095617822784832D0B23B4601AAD0
:104AB00001F07BFDA068017921742079042801D1DF
:104AC000012000E0002005466079042801D1012082
:104AD00000E000200646A0688178A07B814203D1D7
:104AE000B54201D1A07818B3A06880780A2190FB64
:104AF000F1F03030C0B28DF80400A068807890FBEF
:104B0000F1F201FB12003030C0B28DF80500002038
:104B10008DF8060000956278521CD1B22278921D61
:104B2000D0B23B4601AA01F040FDA0688178A17394
:104B30002079052801D1012000E000200546607998
:104B4000052801D1012000E000200646A068417838
:104B5000607B814203D1B54201D1A07818B3A0682F
:104B600040780A2190FBF1F03030C0B28DF804009B
:104B7000A068407890FBF1F201FB12003030C0B227
:104B80008DF8050000208DF8060000956278521C13
:104B9000D1B222782432D0B23B4601AA01F005FD01
:104BA000A068417861732079062801D1012000E0D6
:104BB000002005466079062801D1012000E0002090
:104BC0000646A0680078217B884203D1B54201D116
:104BD000A07818B3A06800780A2190FBF1F030307B
:104BE000C0B28DF80400A068007890FBF1F201FBE0
:104BF00012003030C0B28DF8050000208DF806009C
:104C000000956278521CD1B222784232D0B23B4633
:104C100001AA01F0CAFCA06800782073A078A8B3AC
:104C20002D208DF8040000208DF80500009061789B
:104C300022781E32D0B23B4601AA01F0B6FC002019
:104C40000090617822783C32D0B23B4601AA01F054
:104C5000ACFC3A208DF8040000208DF8050000908F
:104C60006278521CD1B222781832D0B23B4601AAE7
:104C700001F09BFC002000906278521CD1B2227897
:104C80003632D0B23B4601AA01F08FFC2079607128
:104C90000020A070FEBDF8B504460D46A068467918
:104CA000A0680779607CB04204D1207CB84201D171
:104CB000A07878B11E49A06800F06BFE002000903B
:104CC000617820782B461A4A01F06FFC66742774CD
:104CD0000020A070F8BD70B586B004460D460020D7
:104CE00005900490A06880780A2190FBF1F0C0B292
:104CF0008DF81400A068807890FBF1F201FB12009F
:104D0000C0B28DF81500A068407890FBF1F0C0B2F9
:104D10008DF81600A068407890FBF1F201FB1200BC
:104D2000C0B28DF81700A07B90FBF1F0C0B201E09B
:104D3000E80200208DF81000A07B90FBF1F201FB4F
:104D40001200C0B28DF81100607B90FBF1F0C0B290
:104D50008DF81200607B90FBF1F201FB1200C0B2F3
:104D60008DF81300A0680678A0680078217B88423F
:104D700001D1A07898B10021A068007800F001006E
:104D800000EB4000FB4A02EB4010CDE901510090DE
:104D9000617806231022382001F097FB26739DF8D6
:104DA00014009DF81010884201D1A078B0B1002104
:104DB0009DF8140000EB40004000C0EBC000EE4A3C
:104DC00002EB8000CDE901510090617806231C229E
:104DD000002001F07AFBA0688178A1739DF815008E
:104DE0009DF81110884201D1A078B0B100219DF842
:104DF000150000EB40004000C0EBC000DE4A02EBB3
:104E00008000CDE901510090617806231C221046F4
:104E100001F05BFBA0688178A1739DF816009DF8F6
:104E20001210884201D1A078B0B100219DF816007F
:104E300000EB40004000C0EBC000CF4A02EB800016
:104E4000CDE901510090617806231C22482001F031
:104E50003CFBA068417861739DF817009DF8131022
:104E6000884201D1A078B0B100219DF8170000EB75
:104E700040004000C0EBC000BF4A02EB8000CDE91B
:104E800001510090617806231C22642001F01DFB73
:104E9000A068417861730020A07006B070BD70B545
:104EA00004460D46E07830B101280ED0022807D024
:104EB000032814D10EE029462046FFF70CFF0EE030
:104EC00029462046FFF7E7FE09E029462046FFF77E
:104ED00042FD04E029462046FFF723FD00BF00BF46
:104EE00070BD30B5DDE9035420706170A270E370CD
:104EF000A56030BDFEB504460D4620796179884233
:104F000001D1A079A0B100212079E2785043A278A4
:104F1000A36800FB0230CDE901510090E378A2784C
:104F20006178207801F0D1FA207960710020A071B9
:104F3000FEBD70B5049C20706170E2701D78257113
:104F40005E7866719E78A671DE78E67170BDF0B508
:104F500003460E46154600220024002100271EB9F4
:104F6000302018700120F0BD344604E00A20B4FB64
:104F7000F0F4501CC2B2002CF8D13446AA4228DC0E
:104F8000302018702E205870002106E04FF0300CB1
:104F9000881C03F800C0481CC1B2A81A8842F5DC7E
:104FA000174611E00A20B4FBF0FC00FB1C40303037
:104FB00001F1020CBC44ACF1010C03F80C000A2016
:104FC000B4FBF0F4781EC7B2002FEBDCA81CC0B213
:104FD000C9E795B3501CC1B22AE0501C401AA84240
:104FE0000DDA0A20B4FBF0FC00FB1C403030A1F1CC
:104FF000010C03F80C000A20B4FBF0F416E0501C7E
:10500000401AA84205D14FF02E0C481E03F800C0EC
:105010000CE00A20B4FBF0FC00FB1C403030A1F196
:10502000010C03F80C000A20B4FBF0F4481EC1B2D6
:105030000029D2DC501CC0B295E7FFE711460EE014
:105040000A20B4FBF0FC00FB1C403030A1F1010C45
:1050500003F80C000A20B4FBF0F4481EC1B200298A
:10506000EEDC10467FE738B504460D46B4F90A0079
:10507000B4F90C10884206D1207A617A884202D1B4
:10508000A07800285DD0207A0090617820782B46A7
:105090003AA201F08AFAB4F90A00002829DA2D2090
:1050A00039490870E278B4F90A0041423648401C98
:1050B000FFF74DFF354908702179334A33480078AE
:1050C000401C1154617931480078801C1154A17939
:1050D0002E480078C01C1154E1792C480078001D3E
:1050E0001154207A0090617820782B4601F05DFA07
:1050F00023E0E278B4F90A102348FFF728FF234998
:10510000087020792049214A1278885461791E4A12
:105110001E480078401C1154A1791C480078801C5E
:105120001154E17919480078C01C1154207A00907C
:10513000617820782B4601F038FA6089A081002040
:10514000A07038BD2DE9F04706460F4690461D4633
:10515000089C2670677084F80280284602F0E8F9FF
:1051600081464A46294604F1090002F000FABDE8EA
:10517000F08700005E850008CE7E000820202020F9
:105180002020202020200000E80200202B0000200A
:105190002DE9FF4104460D46E0782179884206D189
:1051A0006079A179884202D1E07900284CD0FF20B3
:1051B0008DF80C008DF80D00E078A178884201DDB3
:1051C000A078E0702078E1780844C6B260792C4974
:1051D000CDE900150290A27861782078012301F0D2
:1051E00074F9607903A9CDE9001502906178012373
:1051F0000222304601F069F9217A00222148FFF7A6
:10520000A6FE2149087004F1090002F091F9074651
:105210001C491D4A127888183A4604F1090102F027
:10522000A6F9002000902278A3781A440832D0B260
:1052300061782B46134A01F0B8F9E0782071607963
:10524000A0710020E07100BFBDE8FF8118705970A7
:105250009A60704738B504460D46A078E1788842D8
:1052600001D1207958B1A0780090617820782B4640
:10527000A26801F09AF9A078E0700020207138BD92
:105280001E870008E80200202B0000202DE9F04FC7
:105290008DB00446002700200C90804600266078E0
:1052A0000C90A678E778012505E0605D404400F0A9
:1052B000FF08681CC5B2781EA842F6DC205C404599
:1052C00003D000200DB0BDE8F08F0C98012806D067
:1052D00002281FD0032847D004287BD18DE0012E5F
:1052E00017D120798DF82E0060798DF82D00A079E6
:1052F0008DF82C00E0798DF82A00207A8DF82900AD
:10530000607A8DF82800A07A8DF82B000AA800F0AA
:10531000A7F9F2E0012E03D120798849087022E034
:105320000EBB7F208DF8140002208DF815000020A0
:105330008DF8160006208DF81700804800788DF84B
:1053400018009DF815009DF8161008449DF81710D8
:1053500008449DF818100844C0B28DF819000621C1
:1053600005A800F0FCFBC8E0AEBB7F208DF8140060
:1053700003208DF8150000208DF816000C208DF804
:1053800017006F48007800F001008DF818006C4895
:105390008078C838C0B28DF81900694840788DF817
:1053A0001A00684880683C21B0FBF1F0C0B28DF86B
:1053B0001B0014208DF81C0063488088000A8DF8BB
:1053C0001D00614800798DF81E0000208DF81F0037
:1053D00001250BE090E00FE09DF81F0005A9495D55
:1053E0000844C0B28DF81F00681CC5B20B2DF3DB5A
:1053F0000C2105A800F0B3FB7FE0012E2AD194F820
:10540000059094F804A0A07900EB80004FEA400BCF
:10541000E0790490207A00EB800040000390607AED
:1054200000EB800040000290A07A00EB800040007A
:105430000190BAF1000F06D1C9EB0910810058465E
:1054400001F0D6F805E0DDE90303DDE9012101F013
:10545000E8F850E0F6BB7F208DF8140004208DF8AA
:10546000150000208DF816000C208DF81700354827
:1054700000788DF81800334880683B303C21B0FB41
:10548000F1F0C0B28DF819002E4880880A2190FBF7
:10549000F1F0C0B28DF81A002A48007B8DF81B008D
:1054A0002848008A90FBF1F0C0B28DF81C00254816
:1054B000408A90FBF1F0C0B28DF81D002148808A2F
:1054C00090FBF1F0C0B28DF81E0000208DF81F0097
:1054D00001250AE00FE09DF81F0005A9495D084479
:1054E000C0B28DF81F00681CC5B20B2DF3DB0C2178
:1054F00005A800F034FB00E000BF00BF3846E1E63D
:105500002DE9F0410446271D0025002600BF38463E
:10551000FFF7BCFE05467019C6B22078B04200DC29
:1055200003E0201D4719002DF1D100BF201DFFF71A
:10553000ADFE0020A070BDE8F08100005400002006
:1055400034000020000900202E00002010B50020AB
:1055500000F0F5FC10BD10B5012000F0F0FC0022B9
:105560001146104601F0FDF901F04EFF10BD10B5D7
:105570000446207820B1012814D0022832D120E03E
:105580006078012804D100F06EFE0120207008E050
:105590006078022805D100F066FEFFF7DCFF0220EC
:1055A00020701FE0607820B900F052FE00202070CB
:1055B00006E06078022803D1FFF7CDFF02202070BB
:1055C00010E0607830B9FFF7C1FF00F041FE002025
:1055D000207006E06078012803D1FFF7B7FF0120B3
:1055E000207000BF00BF10BD10B501F0F1FE082013
:1055F00001F002F94FF4E060FAF7E2FD01F0BCF8C7
:1056000000F00EF800F0F0F900F040FA00F011FCA4
:1056100000F0A7FD00F0E8FF00F02EFC10BD000038
:1056200000B589B0EAA30FCBCDE90723CDE9050189
:1056300001F0F4FA102301AA0021642001F0D0F94E
:105640009DF8120010F0020F05D0102305AA0021CA
:10565000642001F075FA0120E149087009B000BD2D
:105660001CB5044620780A2190FBF1F0C0B28DF8F9
:1056700000009DF800000007000E8DF80000207863
:1056800090FBF1F201FB12009DF800100844C0B23B
:105690008DF8000060780A2190FBF1F0C0B28DF81F
:1056A00001009DF801000007000E8DF801006078F0
:1056B00090FBF1F201FB12009DF801100844C0B20A
:1056C0008DF80100A0780A2190FBF1F0C0B28DF8AE
:1056D00002009DF802000007000E8DF80200A0787D
:1056E00090FBF1F201FB12009DF802100844C0B2D9
:1056F0008DF80200E0788DF8030020790A2190FBF4
:10570000F1F0C0B28DF804009DF804000007000E0F
:105710008DF80400207990FBF1F201FB12009DF856
:1057200004100844C0B28DF8040060790A2190FB8F
:10573000F1F0C0B28DF805009DF805000007000EDD
:105740008DF80500607990FBF1F201FB12009DF8E5
:1057500005100844C0B28DF80500A0790A2190FB1D
:10576000F1F0C0B28DF806009DF806000007000EAB
:105770008DF80600A07990FBF1F201FB12009DF874
:1057800006100844C0B28DF8060008236A460021BE
:10579000642001F0D5F91CBD1CB5044608236A46F7
:1057A0000021642001F01CF908B900201CBD9DF8FF
:1057B000000000F00F009DF80010091101EB8101BD
:1057C00000EB410020709DF8010000F00F009DF8F3
:1057D0000110091101EB810100EB410060709DF89F
:1057E000020000F00F009DF80210091101EB810189
:1057F00000EB4100A0709DF80300E0709DF80400EC
:1058000000F00F009DF80410091101EB810100EB7D
:10581000410020719DF8050000F00F009DF8051073
:10582000091101EB810100EB410060719DF8060058
:1058300000F00F009DF80610091101EB810100EB4B
:105840004100A0710120B1E710B50446207840B1B5
:105850006448007828B90823621C0021642001F004
:1058600098FA10BD417801F00F014278121102EB55
:10587000820201EB42014174817801F00F020911AB
:1058800001EB810102EB41018174C17801F00F024B
:10589000091101EB810102EB4101C174027902752A
:1058A000417901F00F02091101EB810102EB410185
:1058B0004175817901F00F02091101EB810102EBC1
:1058C00041018175C17901F00F02091101EB8101DC
:1058D00002EB4101C175704710B582780A2392FB33
:1058E000F3F230320A70827892FBF3F403FB142255
:1058F00030324A703A228A70427892FBF3F23032A8
:10590000CA70427892FBF3F403FB142230320A711E
:105910003A224A71027892FBF3F230328A710278AD
:1059200092FBF3F403FB14223032CA7120220A7274
:105930004A728A723222CA7230220A73827992FBC8
:10594000F3F230324A73827992FBF3F403FB1422B0
:1059500030328A732D22CA73427992FBF3F23032CD
:105960000A74427992FBF3F403FB142230324A7436
:105970002D228A74027992FBF3F23032CA740279D2
:1059800092FBF3F403FB142230320A7500224A75AD
:1059900010BD10B542790A2392FBF3F230320A703F
:1059A000427992FBF3F403FB142230324A702D2229
:1059B0008A70027992FBF3F23032CA70027992FB5C
:1059C000F3F403FB142230320A7100224A7110BD35
:1059D000000000040101150000000000000000E0CC
:1059E000060300202409002010B501F017F901205A
:1059F0002449087010BDF8B504460026002520781B
:105A0000F8B105E0701CC6B2052E01DD0020A080B3
:105A100002236A460021902000F0E2FF0028F1D026
:105A20009DF801009DF8001000EB012085B2642074
:105A300095FBF0F0C0EBC00101EB401085B228B23D
:105A4000A080F8BD10B50446207840B10E4800781B
:105A500028B90223621C0021902001F09AF910BDA0
:105A60008178427801EB022109B28180B0F90410FB
:105A7000642291FBF2F1C1EBC10202EB411109B2C8
:105A8000818070472E000020240900201FB50121CD
:105A90000920FCF73DF84FF44060ADF80C000420FD
:105AA0008DF80F0003208DF80E0003A98E48FBF738
:105AB00011FB0320ADF80C0010208DF80F0003201F
:105AC0008DF80E0003A98848FBF704FB0122022190
:105AD0008548FBF7AEFB002201218348FBF7A9FBB9
