:020000040800F2
:100000001008002081790008890300088B0300088C
:100010008F03000893030008970300080000000006
:100020000000000000000000000000009B0300082A
:100030009D030008000000009F030008A1030008C2
:100040009779000897790008977900089779000850
:100050009779000897790008977900081707000832
:100060009779000897790008977900089779000830
:100070009779000897790008977900089779000820
:100080009779000897790008977900089779000810
:10009000977900089779000897790008B306000857
:1000A00097790008977900089779000897790008F0
:1000B0002D050008977900089779000897790008BE
:1000C00097790008977900089779000897790008D0
:1000D00097790008BB1F00089779000897790008F6
:1000E0002D070008977900089779000800F002F8BA
:1000F00000F05AF80AA090E8000C82448344AAF168
:100100000107DA4501D100F04FF8AFF2090EBAE865
:100110000F0013F0010F18BFFB1A43F0010318473B
:1001200078910000989100000A444FF0000C10F8FC
:10013000013B13F0070408BF10F8014B1D1108BF65
:1001400010F8015B641E05D010F8016B641E01F805
:10015000016BF9D113F0080F1EBF10F8014BAD1C55
:100160000C1B09D16D1E58BF01F801CBFAD505E073
:1001700014F8016B01F8016B6D1EF9D59142D6D3CD
:10018000704700000023002400250026103A28BFF5
:1001900078C1FBD8520728BF30C148BF0B607047F9
:1001A0001FB51FBD10B510BD07F009FC1146FFF7C4
:1001B000F7FF00F070F807F027FC03B4FFF7F2FF39
:1001C00003BC07F02BFC000010B504466048007823
:1001D00000BB604800783C283CDC5F4800685F4911
:1001E0000968401A5B490978884233D3012058498D
:1001F000087000F052FC5A48007840B9594800781D
:1002000028B95948007810B904F009FD22E004F03B
:1002100031FD1FE07CB100204D4908705348007843
:10022000012801D104F040FD00F02CFC00F088FB17
:1002300000204F4908704D48007801280AD14848ED
:10024000007838B94748007820B94748007808B99D
:1002500004F044FD474800683F490968884219D0C6
:100260003D4800684349086001F0D6FA42480068FA
:10027000012803DC0220414908700BE03F48007868
:10028000022807D100203D4908700022114610467F
:1002900001F020F810BD00F035F9002004F03FF91E
:1002A00000203349087051E000240221344805F051
:1002B00060FD48B94FF4967000F0A0FA601CC4B21B
:1002C00025480068254908604FF480712D4805F0E5
:1002D00050FD48B94FF4967000F090FAA01CC4B2DB
:1002E0001D4800681D4908604FF48051254805F0FD
:1002F00040FD00BB4FF4967000F080FA4FF480513F
:10030000204805F036FD80B94FF42F7000F076FAE2
:100310004FF480511B4805F02CFD18B904F108007A
:10032000C4B204E0201DC4B201E0201DC4B20A48DA
:1003300000680A4908600648007820B902F00CF805
:10034000204604F058FB2046FFF73EFFACE70000D4
:10035000460100201C010020240000200000002095
:10036000FA000020080100200901002047010020B8
:100370003C01002004000020280000200A01002089
:1003800000080140000C0140704700BFFEE700BFBD
:10039000FEE700BFFEE700BFFEE77047704770470B
:1003A000704700001FB50121084606F07CF90320C4
:1003B000ADF804000020ADF8060049F63F40ADF866
:1003C00008000020ADF80A008DF80C0001A94FF0DC
:1003D000804006F097FA0121880706F0EFFD012220
:1003E0001146900706F005FE1C208DF80000002045
:1003F0008DF8010005208DF8020001208DF8030022
:10040000684604F0A0FC0121880706F0D7FD1FBD57
:100410001FB501210D2006F039F90220ADF80C00BE
:1004200004208DF80F0003208DF80E0003A9D44896
:1004300005F00EFC4FF48850ADF80C0004208DF848
:100440000F0003208DF80E0003A9CE4805F000FC34
:1004500041F20210019000208DF808000C208DF868
:10046000090000208DF80A0001A805F033F80121E9
:10047000002005F001FD0821012005F0FDFC0C2104
:10048000012005F0F9FC28208DF800000F208DF8E0
:1004900001000E208DF8020001208DF8030068464F
:1004A00004F051FC07208DF800000F208DF80100AA
:1004B0000D208DF8020001208DF80300684604F03D
:1004C00042FC1FBD10B5012005F0FBFF012005F027
:1004D00081F84FF4C011002005F0F6FF012005F06F
:1004E000FFFF022005F0FFFF002006F00AF84FF49E
:1004F000E06006F00FF8002006F015F8202000F06C
:1005000063F910BD10B5FFF7DDFF00F049FAFFF702
:100510007FFF00F07DFE00F09BFF01F048FA01F044
:1005200058FB00F03BFFFFF73DFF10BD70B5012108
:10053000880707F00CF800287ED09348007820B197
:10054000012811D002280ED187E001208F490870C0
:1005500000208F4908708F4908708F4908808F49A3
:1005600008808F4908809DE08E480078032807DACC
:100570008D480078032803DA8C480078032866DB6E
:100580008848007800EB80004000192190FBF1F0D2
:1005900084B28548007800EB8000400090FBF1F0C9
:1005A00085B28248007800EB8000400090FBF1F0BB
:1005B00086B276480078D8B17748008820447649DA
:1005C0000880764800882844744908807448008868
:1005D0003044734908806E480078401C6C490870AC
:1005E00008460078192829DB00206849087025E0B2
:1005F00069480088001B6849088068480088401BDB
:100600006649088066480088801B65490880604804
:100610000078401E5E49087008460078F5280DD124
:1006200000205D4908805D4908805D49088058497F
:1006300008700120554900E03AE0087058480288E7
:10064000564801885448008800F085FE04E00022E6
:100650001146104600F03EFE24E04C48007860B1A0
:100660004C480078401C4B4908700846007819280F
:1006700011DB0020454908700DE046480078401E17
:100680004449087008460078F52804D10020087015
:1006900001203E490870002211463E48007800F0D3
:1006A0005AFE00BF00BF0121880706F061FF00BFAE
:1006B00070BD10B54FF4007004F072FFF8B13C4803
:1006C0000068401C3A4908603A48007898B13A48B6
:1006D000006858B900203749087038490870084642
:1006E00002780178007800F0F5FD04E032480068F7
:1006F000401E314908604FF4007004F062FF4FF46F
:10070000807004F04DFF28B104F04FFA4FF4807070
:1007100004F057FF10BD10B5022004F041FF20B1D6
:1007200004F043FA022004F04CFF10BD10B54FF462
:10073000805004F035FF28B104F037FA4FF48050B0
:1007400004F03FFF4FF4806004F02AFFB8B14FF48B
:10075000806004F036FF4FF480610A4805F009FB21
:10076000012803D100201649087008E0012014492F
:10077000087014480078022801D104F0BAF910BDBD
:1007800000080140000C01400A0100200F00002079
:10079000100000200E000020080000200A000020A9
:1007A0000C0000200C0100200D0100200E01002093
:1007B0002400002009010020180100200B01002066
:1007C000FA000020470100204FF0E02109694FF6B0
:1007D000FB7211404FF0E022116100EB80025100EA
:1007E000CA1701EB5272C2F3C702214B1A701946A5
:1007F0000978642251431F4A1160704701461D4A1F
:1008000012684A434FF0E0235A6100229A610122A4
:100810001A6100BF4FF0E022106910F0010F02D002
:1008200010F4803FF6D000224FF0E0231A619A6165
:10083000704701460E4A12784A430A23B2FBF3F28C
:100840004FF0E0235A6100229A6101221A6100BF31
:100850004FF0E022106910F0010F02D010F4803F39
:10086000F6D000224FF0E0231A619A617047000031
:1008700014000020180000201022FE4B1A602022D5
:100880001A6080221A6020221B1F1A60002114E0C7
:100890002022F84B1A6010F0800F03D080221B1F1B
:1008A0001A6002E08022F34B1A602022F14B1B1FDA
:1008B0001A604206100E4A1CD1B20829E8DB102249
:1008C000EC4B1B1F1A60704730B504460D4605F10E
:1008D000B001C8B2FFF7D0FF102141EA1410FFF7B2
:1008E000CBFF04F00F0141F00100FFF7C5FF30BD61
:1008F0001022E04B1A6020221A6080221B1F1A600F
:1009000020221A60002114E02022DA4B1A6010F035
:10091000800F03D080221B1F1A6002E08022D54B7B
:100920001A602022D34B1B1F1A604206100E4A1C6D
:10093000D1B20829E8DB1022CE4B1B1F1A6070478A
:1009400030B5002415E004F1B001C8B2FFF794FF00
:100950000220FFF791FF1020FFF78EFF002504E033
:100960000020FFF7C5FF681CC5B2802DF8DB601CB6
:10097000C4B2082CE7DB30BD08B50121042005F026
:1009800085FEB820ADF8000010208DF8030003208C
:100990008DF802006946B748143805F059F908BDCA
:1009A00010B5FFF7E9FF0820B249091F086064206D
:1009B000FFF724FF0820AF4908606420FFF71EFFFF
:1009C0000820AC49091F0860AE20FFF755FF022040
:1009D000FFF752FF1020FFF74FFF4020FFF74CFFBB
:1009E0008120FFF749FFCF20FFF746FFA120FFF747
:1009F00043FFC820FFF740FFA620FFF73DFFA820D8
:100A0000FFF73AFF3F20FFF737FFD320FFF734FF10
:100A10000020FFF731FFD520FFF72EFF8020FFF7E2
:100A20002BFFD920FFF728FFF120FFF725FFDA2061
:100A3000FFF722FF1220FFF71FFFDB20FFF71CFF4D
:100A40004020FFF719FF2020FFF716FF0220FFF7D5
:100A500013FF8D20FFF710FF1420FFF70DFFA420D8
:100A6000FFF70AFFA620FFF707FFAF20FFF704FFFD
:100A7000AF20FFF701FFFFF763FF00210846FFF7F4
:100A800023FF10BD00B58D20FFF7F6FE1420FFF701
:100A9000F3FEAF20FFF7F0FE00BD00B58D20FFF79D
:100AA000EBFE1020FFF7E8FEAE20FFF7E5FE00BDED
:100AB0002DE9FF4F83B088461546DDE9116903989B
:100AC000304400F0FF0B01950020009016F1800FDC
:100AD00002DA6FF07F0602E0802E00DD80260398A8
:100AE00000EB060A039828448719BAF17F0F02DD4C
:100AF00007B0BDE8F08F002F00DAF9E7BAF1000F78
:100B00000ADA4FF0000BCAF10000C0B2009005EB0A
:100B10000A00C0B2019006E07F2F04DDA7F17F003C
:100B2000281AC0B20190002486E036B908EB040010
:100B3000C1B25846FFF7C8FE37E0BBF1020F18DB21
:100B400008EB0402D1B2ABF10202D0B2FFF7BCFE57
:100B5000B9F1000F06D10020FFF7CAFE0020FFF711
:100B6000C7FE22E0FF20FFF7C3FEFF20FFF7C0FE15
:100B70001BE0BBF1010F12D108EB0402D1B2ABF1C3
:100B80000102D0B2FFF7A0FEB9F1000F03D100209F
:100B9000FFF7AEFE09E0FF20FFF7AAFE05E008EB35
:100BA0000400C1B25846FFF78FFE002002901AE001
:100BB000B9F1000F09D1029904FB051200990A440A
:100BC0001099885CFFF794FE0AE0029904FB051275
:100BD00000990A441099895CC943C8B2FFF788FE9E
:100BE0000298401C0290DDE901108842E0DB16B358
:100BF000C7F17F00022810DBB9F1000F06D10020F9
:100C0000FFF776FE0020FFF773FE14E0FF20FFF7EA
:100C10006FFEFF20FFF76CFE0DE0C7F17F0001289B
:100C200009D1B9F1000F03D10020FFF761FE02E006
:100C3000FF20FFF75DFE641C06988442FFF675AF47
:100C400000BF55E72DE9FE4304460D4616461F46F4
:100C5000DDF828804FF00009A6F1200000F0FF0920
:100C60007F2C02DD0024681CC5B209EB4900024953
:100C700004E00000140801402A7A000801EB40005B
:100C80000123062229468DE881012046FFF710FF47
:100C9000BDE8FE832DE9F84304460F461546984605
:100CA000DDF82090002610E0CDF80090AA5D4346C4
:100CB00039462046FFF7C6FFA01DC4B2782C02DDDE
:100CC0000024781CC7B2701CC6B2A85D0028EBD106
:100CD000BDE8F883F0B503460E4615460022002411
:100CE000002100271EB9302018700120F0BD3446C5
:100CF00004E00A20B4FBF0F4501CC2B2002CF8D17E
:100D00003446AA4228DC302018702E20587000216A
:100D100006E04FF0300C881C03F800C0481CC1B23C
:100D2000A81A8842F5DC174611E00A20B4FBF0FC53
:100D300000FB1C40303001F1020CBC44ACF1010C52
:100D400003F80C000A20B4FBF0F4781EC7B2002FA1
:100D5000EBDCA81CC0B2C9E795B3501CC1B22AE0B5
:100D6000501C401AA8420DDA0A20B4FBF0FC00FB2C
:100D70001C403030A1F1010C03F80C000A20B4FB38
:100D8000F0F416E0501C401AA84205D14FF02E0C8A
:100D9000481E03F800C00CE00A20B4FBF0FC00FB86
:100DA0001C403030A1F1010C03F80C000A20B4FB08
:100DB000F0F4481EC1B20029D2DC501CC0B295E745
:100DC000FFE711460EE00A20B4FBF0FC00FB1C40DC
:100DD0003030A1F1010C03F80C000A20B4FBF0F450
:100DE000481EC1B20029EEDC10467FE7F0B504468C
:100DF0000E4600250FE06019C1B20020FFF764FD28
:100E0000002704E00020FFF773FD781CC7B2802F95
:100E1000F8DB681CC5B2301B401CA842EBDCF0BDFF
:100E2000FEB506460F4614461D46002104EB44005D
:100E30004000C0EBC000634A02EB800006231C2286
:100E4000CDE90151009039463046FFF731FEFEBD35
:100E50003FB584B015461C469DF812000A2190FB50
:100E6000F1F0C0B28DF80C009DF8120090FBF1F289
:100E700001FB1200C0B28DF80D009DF8110090FB2F
:100E8000F1F0C0B28DF80E009DF8110090FBF1F268
:100E900001FB1200C0B28DF80F0015F0010F0BD04E
:100EA0000020494906231022CDE9001402900221B6
:100EB0003820FFF7FDFD0BE000214348603006239A
:100EC0001022CDE90141009002213820FFF7F0FD0A
:100ED0009DF80C20234602210020FFF7A1FF9DF87A
:100EE0000D20234602211C20FFF79AFF9DF80E20BB
:100EF000234602214820FFF793FF9DF80F20234649
:100F000002216420FFF78CFF08B030BDFEB5064615
:100F10000F4614461D460021600000EB80002B4A5E
:100F200002EB400002230A22CDE90151009039462C
:100F30003046FFF7BDFDFEBDFEB506460F46144622
:100F40001D460021600000EB8000214A02EB4000BA
:100F500002230A22CDE90151009039463046FFF7BD
:100F6000A7FDFEBD2DE9F0430446894615461E4601
:100F7000079F49462046FFF7A7FC4FF0000809E00D
:100F80001FB91820FFF7B4FC02E0E720FFF7B0FC20
:100F900008F10108A845F3DBA119C8B24946FFF7DB
:100FA00093FC37B18120FFF7A3FC8120FFF7A0FC61
:100FB00005E0FF20FFF79CFCFF20FFF799FCBDE850
:100FC000F083000048820008D8880008988900084B
:100FD000248A00082DE9F04707468A4616469846B7
:100FE0004FF000090024002541F2883404E0641E1B
:100FF00014B90020BDE8F0874FF400319E4805F099
:1010000031F90028F3D101219B4805F040F8012176
:10101000994805F024F841F2883403E0641E0CB9C5
:101020000020E7E79549944805F0FAF80028F5D044
:1010300000223946904805F068F841F2883403E010
:10104000641E0CB90020D5E78D498B4805F0E8F8FF
:101050000028F5D05146884805F051F841F288340F
:1010600003E0641E0CB90020C4E78549891C82484E
:1010700005F0D6F80028F4D001217F4804F0EFFFF6
:1010800041F2883403E0641E0CB90020B2E77B49CA
:10109000794805F0C5F80028F5D001223946764890
:1010A00005F033F841F2883403E0641E0CB90020E7
:1010B000A0E77249491C704805F0B2F80028F4D046
:1010C000002515E041F2883403E0641E0CB90020CD
:1010D00090E76A493F31684805F0A2F80028F4D04B
:1010E000654805F00EF8814606F80590681CC5B203
:1010F000A8F10100A842E5DC00215F4804F0C7FF29
:1011000001215D4804F0B7FF41F2883403E0641E1A
:101110000CB900206EE759493F31574805F080F877
:101120000028F4D0544804F0ECFF814606F80590FE
:1011300001205FE72DE9F0470646894617469846A5
:101140000025002441F2883404E0641E14B9002014
:10115000BDE8F0874FF40031474805F083F80028D8
:10116000F3D10121444804F092FF0121424804F0E8
:1011700076FF41F2883403E0641E0CB90020E7E7F3
:101180003E493D4805F04CF80028F5D00022314694
:10119000394804F0BAFF41F2883403E0641E0CB908
:1011A0000020D5E73649344805F03AF80028F5D054
:1011B0004946314804F0A3FF41F2883403E0641E3D
:1011C0000CB90020C4E72E49891C2B4805F028F8EB
:1011D0000028F4D0002513E0795D274804F08FFF44
:1011E00041F2883403E0641E0CB90020B0E72449C2
:1011F000891C214805F014F80028F4D0681CC5B2F9
:101200004545E9DB01211C4804F035FF01209FE73B
:1012100000B585B00121480505F045FA01210920F6
:1012200005F034FAC020ADF8000003208DF802006C
:101230001C208DF803006946124804F009FD0020C7
:10124000ADF808004BF6FF70ADF80A001120ADF8BC
:101250000C004FF48060ADF80E000001ADF81000F6
:101260000948019001A9044804F057FE01210248F1
:1012700004F0D1FE05B000BD0054004001000300A1
:1012800082000700000C0140A086010038B500254F
:10129000002406E0681CC5B2052D02DD4FF0FF30CA
:1012A00038BD02236A4600219020FFF793FE0028F4
:1012B000F0D09DF801009DF8001000EB012004B271
:1012C000642094FBF0F0C0EBC00101EB401004B2CD
:1012D0002046E5E770B504460D461646642C01DC51
:1012E00056480480642D01DC55480580642E01DCDD
:1012F000544806805348008800EB80004FF6FF7288
:1013000002EA4001504806F0F1F84D48008800EB31
:1013100080004FF6FF7202EA40014B4806F0E8F801
:101320004648008800EB80004FF6FF7202EA400159
:10133000454806F0DFF870BD2DE9F0410446E5129E
:10134000C4F3841604F01F073A4631462846FFF7D7
:10135000C1FFBDE8F08170B506460C461546B6F5EE
:101360007A7F01DC35480680B4F57A7F01DC3448A9
:101370000480B5F57A7F01DC324805803148018868
:10138000314806F0B3F82E4801882F4806F0B0F82F
:101390002A4801882C4806F0ADF870BD00B589B028
:1013A0000121092005F072F90121C80205F06EF94A
:1013B0004FF46040ADF8200018208DF82300032082
:1013C0008DF8220008A9214804F042FC0720ADF85E
:1013D00014000020ADF8160040F2E730ADF8180018
:1013E0000020ADF81A008DF81C0005A9164805F07C
:1013F00089FA0020ADF80A007020ADF8040004203E
:10140000ADF808000820ADF80E000020ADF812007D
:1014100001A90D4805F0B3FA01A90B4805F0F1FA4E
:1014200001A9094805F03AFB0121074805F0C6FD6E
:101430000121054805F0CEFD09B000BD1C000020CB
:101440001E00002020000020002C0140000C014064
:1014500000B58DB0EBA30FCBCDE90B23CDE909018E
:10146000102305AA00216420FFF7B4FD9DF8220097
:1014700010F0020F05D0102309AA00216420FFF705
:1014800059FE0121092005F001F94FF40070ADF873
:10149000080048208DF80B0002A9DE4804F0D8FBB4
:1014A0000921012004F0E8FC4FF4007003900020B3
:1014B0008DF8100008208DF8110001208DF8120021
:1014C00003A804F007F817208DF804000F208DF80A
:1014D00005008DF8060001208DF8070001A803F033
:1014E00032FC0DB000BD03B583B09DF80C000A219D
:1014F00090FBF1F0C0B28DF804009DF804000007E5
:10150000000E8DF804009DF80C0090FBF1F201FB39
:1015100012009DF804100844C0B28DF804009DF834
:101520000D000A2190FBF1F0C0B28DF805009DF886
:1015300005000007000E8DF805009DF80D0090FBDA
:10154000F1F201FB12009DF805100844C0B28DF8BD
:1015500005009DF80E000A2190FBF1F0C0B28DF855
:1015600006009DF806000007000E8DF806009DF8A5
:101570000E0090FBF1F201FB12009DF806100844EA
:10158000C0B28DF806009DF80F008DF807009DF899
:1015900010000A2190FBF1F0C0B28DF808009DF810
:1015A00008000007000E8DF808009DF8100090FB61
:1015B000F1F201FB12009DF808100844C0B28DF84A
:1015C00008009DF811000A2190FBF1F0C0B28DF8DF
:1015D00009009DF809000007000E8DF809009DF82C
:1015E000110090FBF1F201FB12009DF80910084474
:1015F000C0B28DF809009DF812000A2190FBF1F0AD
:10160000C0B28DF80A009DF80A000007000E8DF8A0
:101610000A009DF8120090FBF1F201FB12009DF808
:101620000A100844C0B28DF80A00082301AA00215C
:101630006420FFF77FFD05B000BD1CB504460823FC
:101640006A4600216420FFF7C5FC08B900201CBDD4
:101650009DF8000000F00F009DF80010091101EB4B
:10166000810100EB410020709DF8010000F00F00A7
:101670009DF80110091101EB810100EB4100607040
:101680009DF8020000F00F009DF80210091101EB17
:10169000810100EB4100A0709DF80300E0709DF80F
:1016A000040000F00F009DF80410091101EB810106
:1016B00000EB410020719DF8050000F00F009DF83F
:1016C0000510091101EB810100EB410060719DF8EB
:1016D000060000F00F009DF80610091101EB8101D2
:1016E00000EB4100A0710120B1E707B59DF80200B1
:1016F0000A2190FBF1F0303010709DF8020090FB51
:10170000F1F301FB1300303050703A2090709DF8D7
:10171000010090FBF1F03030D0709DF8010090FB9B
:10172000F1F301FB1300303010713A2050719DF835
:10173000000090FBF1F0303090719DF8000090FBBC
:10174000F1F301FB13003030D07120201072507281
:1017500090723220D072302010739DF8060090FBFA
:10176000F1F0303050739DF8060090FBF1F301FB6F
:101770001300303090732D20D0739DF8050090FB3E
:10178000F1F0303010749DF8050090FBF1F301FB8F
:101790001300303050742D2090749DF8040090FB9D
:1017A000F1F03030D0749DF8040090FBF1F301FBB0
:1017B000130030301075002050750EBD07B59DF830
:1017C00005000A2190FBF1F0303010709DF8050003
:1017D00090FBF1F301FB1300303050702D2090701E
:1017E0009DF8040090FBF1F03030D0709DF80400BB
:1017F00090FBF1F301FB13003030107100205071A9
:101800000EBD0000000000040101150000000000F2
:10181000000000E0000C014010B500240020AC499D
:10182000086000BF09E0AB4830F81400A849096817
:101830000844A7490860601CC4B2102CF3DBA4481C
:1018400000680011A249086009684FF4167201FB94
:1018500002F0C11700EB115109139D4A11609E4817
:10186000006807280FD2DFE800F0040F253B51671E
:101870007D0097480068B0F5B27F04DB96480068A9
:10188000401C9549086078E091480068B0F5AC7F4D
:1018900005DC91480068401E8F49086009E08C48CB
:1018A0000068B0F5B77F04DB8B480068401C8A49AC
:1018B000086062E086480068B0F5B17F05DC8648C4
:1018C0000068401E8449086009E081480068B0F55E
:1018D000BC7F04DB80480068401C7F4908604CE006
:1018E0007B480068B0F5B67F05DC7B480068401E89
:1018F0007949086009E076480068B0F5C17F04DBEB
:1019000075480068401C7449086036E070480068FB
:10191000B0F5BB7F05DC70480068401E6E4908606A
:1019200009E06B480068B0F5C67F04DB6A480068D0
:10193000401C6949086020E065480068B0F5C07F38
:1019400005DC65480068401E6349086009E060489E
:101950000068B0F5CB7F04DB5F480068401C5E493F
:1019600008600AE05A480068B0F5C57F04DC5A48B0
:101970000068401E5849086000BF00BF0821574852
:1019800004F0F7F918B901205549087002E0002069
:10199000534908701021514804F0EBF918B901209F
:1019A0005049087002E000204E49087010BD00B593
:1019B00091B001214FF4037004F068FE0121084644
:1019C00004F057FE0121484804F011FA02208DF876
:1019D000020000208DF803000420ADF800006946E5
:1019E000424804F035F91820ADF8000048208DF881
:1019F000030003208DF802006946384804F028F9F6
:101A00003B4803F031FC3B480190324802900020F3
:101A10000390102004900020059080200690400044
:101A20000790800008902020099000020A90002072
:101A30000B9001A92E4803F0B9FC01212C4803F0BA
:101A4000E0FC00200C908DF8340001208DF835006A
:101A50004FF460200E9000200F9001208DF8400080
:101A60000CA924484C3803F0FEF907230122022177
:101A700020484C3803F08FFA01211E484C3803F0FF
:101A800029FA01211B484C3803F019FA19484C383F
:101A900003F037FA00BF17484C3803F037FA002834
:101AA000F9D114484C3803F03BFA00BF11484C38C8
:101AB00003F03BFA0028F9D101210E484C3803F01D
:101AC000FEF901210B484C3803F039FA11B000BD82
:101AD0002C0000205C01002028000020000C0140A8
:101AE00030000020310000200002300000080140DA
:101AF000080002404C24014010B50446012C08D1D6
:101B000000220121FE4804F052F90120FD4908702D
:101B100007E001221146FA4804F049F90020F9498A
:101B2000087010BD00B587B0012144F2050004F033
:101B3000ADFD4FF48060ADF8180004208DF81B0057
:101B400006A9F14804F084F84FF40070ADF81800CD
:101B500003208DF81A0018208DF81B0006A9EA480A
:101B600004F076F84FF4165002900020ADF80C0007
:101B7000ADF80E00ADF81000ADF814000C20ADF873
:101B8000120002A9E14805F03AFD0121DF4805F005
:101B9000C2FD012240F22551DC4805F0C8FD40F2AB
:101BA0002551DA4805F0D2FE4FF4E06003F0C6F8A4
:101BB00025208DF8040000208DF8050006208DF802
:101BC000060001208DF8070001A803F0BCF807B05B
:101BD00000BD0EB50121092004F058FD4FF440600E
:101BE000ADF8080004208DF80B0003208DF80A00E2
:101BF00002A9C34804F02CF80320ADF80800102017
:101C00008DF80B0003208DF80A0002A9BC4804F0EF
:101C10001FF801220221BA4804F0C9F8002201216C
:101C2000B74804F0C4F80120B6490870800200905B
:101C300000208DF8040010208DF8050001208DF89B
:101C40000600684603F046FC0A21012004F014F95E
:101C5000FFF768FF0EBD2DE9F04105460F46002253
:101C60000221A74804F0A3F84FF4FA70FEF7E1FD53
:101C700000240DE02E5D3146A44805F0B9FD00BFFB
:101C80004021A24805F022FE0128F9D1601CC4B20F
:101C9000BC42EFDBC820FEF7CCFD012202219848B0
:101CA00004F085F8BDE8F0812DE9F04788B0002602
:101CB000B14600270025964890F801908578C678AF
:101CC000012405E09248005D3844C7B2601CC4B2EC
:101CD000701EA042F6DC8E49085CB84202D008B003
:101CE000BDE8F087B9F1010F09D0B9F1020F29D091
:101CF000B9F1030F51D0B9F1040F7CD195E0012D5A
:101D00001FD1834800798DF81E00814840798DF8F5
:101D10001D007F4880798DF81C007D48C0798DF8C2
:101D20001A007B48007A8DF819007948407A8DF8BE
:101D300018007748807A8DF81B00DDE90601FFF76F
:101D4000D2FB37E1012D04D1714800797149087047
:101D500022E00DBB7F208DF8040002208DF80500E5
:101D600000208DF8060006208DF8070069480078ED
:101D70008DF808009DF805009DF8061008449DF8B0
:101D8000071008449DF808100844C0B28DF80900F7
:101D9000062101A8FFF75FFF0CE16DBB7F208DF8E6
:101DA000040003208DF8050000208DF806000C20AB
:101DB0008DF80700584800788DF8080057480078DB
:101DC000C838C0B28DF80900554800788DF80A006F
:101DD000544800683C21B0FBF1F0C0B28DF80B0014
:101DE0006E208DF80C005048008800128DF80D0010
:101DF0004D48007801E0DCE016E08DF80E00002090
:101E00008DF80F00012409E09DF80F0001A9095D7C
:101E10000844C0B28DF80F00601CC4B20B2CF3DB79
:101E20000C2101A8FFF717FFC4E0012D55D1384858
:101E300090F804A090F8058080793C4908703448F7
:101E4000C0793B4908703248007A3A4908703048F6
:101E5000407A394908702E48807A38490870BAF1BA
:101E6000000F0CD100203649087030480278017804
:101E70000078FFF72FFA00203249087014E00120A3
:101E80002F4908702D4802782B480178294800789E
:101E9000FFF720FA2648007818B101202949087078
:101EA00002E0002027490870B8F1000F0FDD1F483D
:101EB000007800280BDD2248007840B90120224933
:101EC0000870C8EB081080001649086004E0002084
:101ED0001D490870134908606AE0BDBB7F208DF87A
:101EE000040004208DF8050000208DF806000C2069
:101EF0008DF80700124800788DF80800094826E0A0
:101F0000000C0140000100200008014000380140A1
:101F10007C0100201C010020300000202C0000204B
:101F20002800002018010020040100200B010020DF
:101F3000080100200C0100200D0100200E010020EE
:101F4000070100200A0100200901002030E000689C
:101F50003B303C21B0FBF1F0C0B28DF809003C48A9
:101F600000788DF80A003B4800788DF80B003A485D
:101F700000788DF80C00394800788DF80D0038484D
:101F800000788DF80E0000208DF80F00012409E084
:101F90009DF80F0001A9095D0844C0B28DF80F003B
:101FA000601CC4B20B2CF3DB0C2101A8FFF753FE1D
:101FB00000E000BF00BF00BF91E610B540F2255120
:101FC000284805F099FC002841D040F225512548C9
:101FD00005F0BCFC234805F00FFC2349087023489A
:101FE0000078012821D1084600782149214A128829
:101FF000885420480088401C1E4908801C48C0782E
:102000000988884207D100201849087019490880BA
:10201000FFF74AFE1BE0174800880C2817DD002058
:10202000144908801149087011E00F4800787F2892
:102030000DD101200D4908700B4801780C480D4A5C
:10204000128881540B480088401C0A49088010BD42
:102050000B010020080100200C0100200D010020D0
:102060000E01002000380140FE000020FF0000208B
:102070007C010020FC0000201CB5FB4800780028F3
:1020800071D1FA480068FA49096888426BD0F8486B
:102090000068F6490860F748FFF7CFFAFFF7F6F84F
:1020A000F5490880FFF7B8FB0222F3480188F3489E
:1020B000FEF710FEF24908707C20F049F04A1278D1
:1020C00088544321ED4AEE480078401C1154002109
:1020D000EB480078801C1154002003460121009039
:1020E000FEF7D8FDE348016800918188ADF804103F
:1020F00080798DF80600E14ADDE90001FFF7F5FA85
:1021000000200346DD4A01460090FEF7C3FDDD488E
:102110000278002301217620FEF7F8FE0222DA4839
:102120000168D648FEF7D6FDD54908705621D34838
:10213000D34A1278815400210246D1480078401CCD
:1021400011540020034602210090FEF7A3FDCF4862
:102150000078012808D100200346CDA20321009079
:10216000FEF798FD07E07DE000200346CBA20321A7
:102170000090FEF78FFDCC480078012808D10020A0
:102180000346CAA2032100904820FEF783FD07E022
:1021900000200346C7A2032100904820FEF77AFDE5
:1021A000C6480078012807D100200346C4A20521B3
:1021B0000090FEF76FFD06E000200346C3A2052154
:1021C0000090FEF767FDC4480078012808D1002080
:1021D0000346C2A2052100903620FEF75BFD07E012
:1021E00000200346C1A2052100903620FEF752FDD3
:1021F000C248007801282ED100200346C0A2072142
:102200000090FEF747FD0022C04801689B48FEF79A
:1022100061FD9B49087073209849994A1278885447
:102220002021964A96480078401C11549448007822
:10223000801C115492480078C01C11540021904811
:102240000078001D115400200346072100903C2017
:10225000FEF720FD06E000200346ADA20721009016
:10226000FEF718FD1CBD0EB5AE4800688049096830
:10227000884270D07E480068AA4908607D48FFF710
:10228000DCF9FFF703F87C490880FFF7C5FA022262
:10229000794801887948FEF71DFD794908707C214D
:1022A00077480078401E754A115443211046744AFD
:1022B000127881540021024671480078401C115464
:1022C0000020034601210090FEF7E4FC6948016804
:1022D00001918188ADF8081080798DF80A00674A6D
:1022E000DDE90101FFF76AFA00200346634A01466F
:1022F0000090FEF7CFFC7148007828B100231A4601
:1023000019466A20FEF718FE5E4802780023194637
:102310007620FEF7FBFD0022784800784000C0EBF5
:102320000010814B1844CDE90002022302920F22D3
:1023300000215620FEF7BCFB4E480278016801914F
:102340008188ADF8081080798DF80A000023DDE956
:102350000101FEF77DFD0EBD10B574480078072819
:1023600010D2DFE800F004070D080E090A00FFF79D
:102370007AFF07E006E005E004E0FFF77DFE01E0FC
:1023800000E000BF00BF10BDFEB5064636B1012E0D
:1023900008D0022E09D0032E0ED10AE06FF07F0480
:1023A000002517E08024002514E000246FF07F054D
:1023B00010E0002480250DE0FEF7C2FA00205C4A00
:1023C000CDE9002008234022014602902020FEF79C
:1023D0006FFBFEBD00BF10E00EB1032E01D1A41CA7
:1023E00000E0A41E0020524908234022CDE9001439
:1023F000029001462020FEF75BFBAC42ECD100BF0F
:10240000E7E7FEB50446052507260227012C28D05C
:10241000022C04D0042C25D0082C24D1FDE34548FF
:10242000007808281CD2DFE800F089E6F2F1F0EF2E
:10243000EE042249097809B9012100E0002108468B
:10244000FFF75AFB00213C481C4B1B7800EBC300F4
:10245000CDE900010123082208460291FEF728FB7E
:102460003FE240E2FEE33DE2290100202C01002092
:102470002400002035010020040100209A010020E2
:1024800034010020280000202C0000203000002013
:102490004368617267696E673A5900004368617208
:1024A00067696E673A4E00003100002046756C6C1B
:1024B0003A59000046756C6C3A4E0000000100204D
:1024C000424C453A204F6E2C00000000424C453AE9
:1024D000204F66662C000000FA000020436F6E6EED
:1024E0006563746564202020000000004469736304
:1024F0006F6E6E6563746564000000000901002062
:102500004C65642044656C61793A00001801002034
:102510004C65642044656C61793A4F6666202020E2
:1025200020000000300100204C8A00083C010020FF
:10253000988C00083E010020888A0008FB488079BA
:1025400018B96320F949887104E0F8488079401E81
:10255000F64988713220F649087030204870F348F7
:1025600080790A2190FBF1F03030F1498870EF4812
:1025700080790A2190FBF1F201FB12003030EC4926
:10258000C87000200871012000230A4629460090E7
:102590001620FEF77FFBE5498879C11700EB9171A2
:1025A0008910B0EB810125D0E0494979022921D178
:1025B000DE4909791D291DDB1C20DC49087108460C
:1025C00000790A2190FBF1F03030D9490870D748E2
:1025D00000790A2190FBF1F201FB12003030D4495E
:1025E00048700020887003460A4629460090602003
:1025F000FEF750FB75E1CD484079012808D10C2049
:10260000CA49487109E01FE1F5E0CBE0A1E05EE0D6
:10261000C6484079401EC5494871C44840790A21DE
:1026200090FBF1F03030C2490870C04840790A216F
:1026300090FBF1F201FB12003030BD4948700020E0
:102640008870012000230A46294600904220FEF7A8
:1026500021FBB64801794079401EB64A105C8142A0
:1026600034DDB2484079401E1146085CAF4908711C
:102670000846407902280ED18879C11700EB917184
:102680008910B0EB810106D0A84909791C2902DD27
:102690001C20A6490871A54800790A2190FBF1F099
:1026A0003030A3490870A14800790A2190FBF1F26B
:1026B00001FB120030309E494870002088700346AC
:1026C0000A46294600906020FEF7E4FA09E197489F
:1026D0000079012807D195484079401E9549085C4A
:1026E0009249087104E091480079401E8F490871B1
:1026F0008E498879C11700EB91718910B0EB810187
:102700000AD08A494979022906D1884909791D29BF
:1027100002DB1C2085490871844800790A2190FB5E
:10272000F1F0303082490870804800790A2190FB2E
:10273000F1F201FB120030307D49487000208870B2
:10274000012000230A46294600906020FEF7A2FAE5
:10275000C7E07648807818B917207449887004E07B
:1027600072488078401E71498870704880780A21CC
:1027700090FBF1F030306E4908706C4880780A2187
:1027800090FBF1F201FB12003030694948700020E3
:102790008870012000230A46314600901C20FEF775
:1027A00079FA9EE06148407818B93B205F4948704B
:1027B00004E05E484078401E5C4948705B484078C1
:1027C0000A2190FBF1F030305949087057484078A1
:1027D0000A2190FBF1F201FB12003030544948709D
:1027E00000208870012000230A46314600903A20DC
:1027F000FEF750FA75E04D48007818B93B204B4978
:10280000087004E049480078401E4849087047486D
:1028100000780A2190FBF1F03030454908704348B8
:1028200000780A2190FBF1F201FB120030304049A0
:10283000487000208870012000230A46314600902D
:102840005820FEF727FA4CE03B4800780A383A490E
:102850000870084600780A2801DC0A20087036480B
:1028600000783C282CDC0120009033480378482273
:1028700039460420FEF776FB00222F4801782C48C9
:10288000FEF728FA2D490870732129482B4A12783F
:1028900081540021024629480078401C1154002030
:1028A000034627A2394600905420FEF7F3F9002092
:1028B00003461F4A394600905420FEF7EBF90FE01B
:1028C000012046234822394600900420FEF74AFBA7
:1028D000002003461CA2394600905420FEF7DAF986
:1028E00000BF00BF19E21A48007808281CD2DFE8B0
:1028F00000F03593FCFBFAF9F8041649097809B998
:10290000012100E000210846FFF7F6F800211248F7
:10291000104B1B7800EBC300CDE900010123082216
:1029200008460291FEF7C4F8F6E100003F010020DE
:102930009A0100201D0100201C010020340100200C
:1029400020202020200000004E65766572000000E7
:102950003E01002000010020888A0008FE4880799E
:10296000632803D10020FC49887104E0FA4880798B
:10297000401CF94988713220F849087030204870AD
:10298000F54880790A2190FBF1F03030F3498870E6
:10299000F14880790A2190FBF1F201FB12003030FE
:1029A000EE49C87000200871012000230A4629461C
:1029B00000901620FEF76EF9E7498879C11700EB01
:1029C00091718910B0EB810125D0E3494979022941
:1029D00021D1E14909791D291DDB1C20DE4908713F
:1029E000084600790A2190FBF1F03030DB4908708D
:1029F000D94800790A2190FBF1F201FB1200303036
:102A0000D64948700020887003460A46294600903F
:102A10006020FEF73FF97FE1CF4840790C2803D1D1
:102A20000120CD49487104E0CB484079401CCA4997
:102A30004871C94840790A2190FBF1F03030C7490C
:102A40000870C54840790A2190FBF1F201FB1200A1
:102A50003030C249487000208870012000230A46A7
:102A6000294600904220FEF715F9BB4801794079CC
:102A7000401EBB4A105C81423ADDB7484079401E97
:102A80001146085CB44908710846407902280ED105
:102A90008879C11700EB91718910B0EB810106D0E4
:102AA000AD4909791C2902DD1C20AB490871AA48EF
:102AB00000790A2190FBF1F03030A8490870A6484F
:102AC00000790A2190FBF1F201FB12003030A3499A
:102AD00048700020887003460A462946009060200E
:102AE00004E0CAE09DE070E045E002E0FEF7D2F8C5
:102AF00012E1994801794079401E994A105C81425F
:102B000003D101209449087104E093480079401CE6
:102B10009149087190498879C11700EB917189102A
:102B2000B0EB81010AD08C494979022906D18A4942
:102B300009791D2902DB1C20874908718648007924
:102B40000A2190FBF1F03030844908708248007906
:102B50000A2190FBF1F201FB120030307F494870EE
:102B600000208870012000230A462946009060203A
:102B7000FEF790F8D0E078488078172803D100203D
:102B80007549887004E074488078401C72498870E8
:102B9000714880780A2190FBF1F030306F4908705D
:102BA0006D4880780A2190FBF1F201FB1200303071
:102BB0006A49487000208870012000230A46314687
:102BC00000901C20FEF766F8A6E0634840783B289A
:102BD00003D100206049487004E05F484078401C01
:102BE0005D4948705C4840780A2190FBF1F0303034
:102BF0005A490870584840780A2190FBF1F201FBCD
:102C000012003030554948700020887001200023A0
:102C10000A46314600903A2000E053E2FEF73AF8C7
:102C20007AE04D4800783B2803D100204A490870DB
:102C300004E049480078401C47490870464800783D
:102C40000A2190FBF1F03030444908704248007886
:102C50000A2190FBF1F201FB120030303F4948702D
:102C6000002000E05AE08870012000230A46314627
:102C700000905820FEF70EF84EE03A4800780A30EF
:102C80003849087008460078462801DB462008705D
:102C9000344800783C282DDC01200090314803782E
:102CA000482239460420FEF75DF900222D480178BC
:102CB0002A48FEF70FF82C490870732027492A4A42
:102CC000127888540021254A27480078401C115466
:102CD00000200346AFF29832394600905420FDF7A9
:102CE000D9FF002003461D4A394600905420FDF7C5
:102CF000D1FF10E0012046234822394600900420ED
:102D0000FEF730F900200346AFF2C4323946009096
:102D10005420FDF7BFFF00BF00BFF7E11348007864
:102D2000082839D2DFE800F074B4F3F1F0EF390489
:102D300006200E490870002003460DA201460090AF
:102D40000820FDF7A7FF074800783C281CDC01207D
:102D500000900448037811E03F0100209A01002010
:102D60001D0100201C010020340100203E01002034
:102D7000426C7565746F6F746800000048223946B4
:102D80000420FEF7EFF807E00120462348223946E9
:102D900000900420FEF7E6F892E10020F749087061
:102DA000F74800783C2809DC00200090F4480378BC
:102DB000482239460420FEF7D5F807E000204623D4
:102DC0004822394600900420FEF7CCF83220ED4925
:102DD000087030204870EC4880790A2190FBF1F0AF
:102DE0003030E8498870E84880790A2190FBF1F298
:102DF00001FB12003030E349C87000200871012047
:102E000000230A46294600901620FDF743FF57E1AC
:102E10000120DA4908703220DA4908703020487001
:102E2000D94880790A2190FBF1F03030D54988707B
:102E3000D54880790A2190FBF1F201FB1200303075
:102E4000D049C8700020087103460A462946009000
:102E50001620FDF71FFFCC4840790A2190FBF1F0C6
:102E60003030C8490870C84840790A2190FBF1F217
:102E700001FB12003030C3494870002088700120E7
:102E800000230A46294600904220FDF703FF17E180
:102E90000220BA490870BC4840790A2190FBF1F041
:102EA0003030B8490870B84840790A2190FBF1F2F7
:102EB00001FB12003030B34948700020887003468F
:102EC0000A46294600904220FDF7E4FEAE4800790C
:102ED0000A2190FBF1F03030AA490870AA48007925
:102EE0000A2190FBF1F201FB12003030A549487035
:102EF00000208870012000230A46294600906020A7
:102F0000FDF7C8FEDCE0B3E077E03BE0FFE703203D
:102F10009A4908709C4800790A2190FBF1F0303002
:102F200098490870984800790A2190FBF1F201FB5A
:102F300012003030934948700020887003460A46DA
:102F4000294600906020FDF7A5FE8F4880780A2171
:102F500090FBF1F030308B4908708B4880780A2163
:102F600090FBF1F201FB12003030864948700020DE
:102F70008870012000230A46314600901C20FDF78E
:102F800089FE9DE004207D4908707F4880780A21F1
:102F900090FBF1F030307B4908707B4880780A2143
:102FA00090FBF1F201FB12003030764948700020AE
:102FB000887003460A46314600901C20FDF76AFEE1
:102FC000714840780A2190FBF1F030306D4908706B
:102FD0006D4840780A2190FBF1F201FB120030307D
:102FE0006849487000208870012000230A46314655
:102FF00000903A20FDF74EFE62E005205F49087020
:10300000614840780A2190FBF1F030305D4908704A
:103010005D4840780A2190FBF1F201FB120030304C
:10302000584948700020887003460A46314600908F
:103030003A20FDF72FFE544800780A2190FBF1F06A
:10304000303050490870504800780A2190FBF1F266
:1030500001FB120030304B4948700020887001207D
:1030600000230A46314600905820FDF713FE27E062
:10307000072042490870444800780A2190FBF1F08B
:10308000303040490870404800780A2190FBF1F246
:1030900001FB120030303B49487000208870034625
:1030A0000A46314600905820FDF7F4FD0120002328
:1030B000AFF24432194600900820FDF7EBFD00BF47
:1030C00000BF23E00420FFF75FF92C4800780628B2
:1030D00010D02A48007807280CD02B4801680191AD
:1030E0008188ADF8081080798DF80A00DDE90101CA
:1030F000FEF7F9F900BF4FF48051244802F039FE81
:103100000028F8D003202249087000BF00BFFEBD90
:10311000FEB5054635B1012D08D0022D09D0032D8D
:103120000ED10AE06FF07F04002639E080240026EB
:1031300036E000246FF07F0632E0002480262FE086
:10314000FDF7FEFB1348007802280BD10020124A3D
:10315000CDE9002008234022014602902020FDF7FF
:10316000A7FC0AE000200D4ACDE9002008234022F8
:10317000014602902020FDF79BFCFEBD3E01002091
:103180001C0100209A0100203F010020000C01409A
:103190003C0100200A01002098900008988A00084D
:1031A00000BFF9480078022814D110E00DB1032DBA
:1031B00001D1A41C00E0A41E0020F44908234022F1
:1031C000CDE90014029001462020FDF771FCB442C5
:1031D000ECD113E010E00DB1032D01D1A41C00E0EF
:1031E000A41E0020EA4908234022CDE900140290E1
:1031F00001462020FDF75CFCB442ECD100BFBCE7E7
:1032000001B584B0049801287ED0022806D0042895
:103210007BD0082840F02A8700F0FEBEDD48007809
:10322000072873D2DFE800F004FDFCFBFAF9F80090
:10323000D948007808B9012000E00020D64908707C
:103240000021D648D44B1B7800EBC300CDE9000128
:103250000123082208460291FDF72AFCCE48007897
:10326000002876D1CE490870C7490870072101208F
:10327000FDF7BCFD00200346CAA202210090FDF725
:1032800009FD00200090C948037866220321002030
:10329000FDF768FE0022C5480178C548FDF71AFD14
:1032A000C44908702020C249C24A12788854C14AD1
:1032B000127888540021BE48BE4A127881540020FA
:1032C0000346BB4A032100906820FDF7E3FCB748A2
:1032D000027801780078FDF7FDFF00200346AFF685
:1032E000DC5205210090FDF7D5FCB34800683C2175
:1032F000B0FBF1F0B149087000200090084600785A
:10330000401003463E2202E07AE2FDE336E2062167
:1033100003900020FDF726FEA8480078642806DB0D
:10332000A6480078642190FBF1F0303000E02020C6
:10333000A3490870A14800780A280BDB9F48007851
:103340000A2190FBF1F090FBF1F201FB120030300A
:1033500001E015E020209A494870984800780A2139
:1033600090FBF1F201FB120030309549887000208B
:1033700003460A46062100904220FDF78BFC9DE0A3
:1033800007210120FDF732FD00218448844B1B7882
:1033900000EBC300CDE90001012308220291194688
:1033A0000020FDF785FB0020034686A20121009046
:1033B0000A20FDF76FFC0020034685A20221009041
:1033C000FDF768FC00200090834803786622032103
:1033D0000020FDF7C7FD00227F4801787448FDF703
:1033E00079FC7449087000207149724A1278885437
:1033F00003460A46032100906820FDF74BFC00209D
:10340000034676A204210090FDF744FC00200090C2
:1034100074480378662205E0ADE0B0E170E12FE189
:103420006FE04CE005210020FDF79CFD00226D4877
:1034300001785F48FDF74EFC5E49087000205C494A
:103440005C4A12788854034667A2052100906820E0
:10345000FDF720FC00200346554A05210090682016
:10346000FDF718FC0020034660A206210090FDF73E
:1034700011FC002000905F4803786622072100209D
:10348000FDF770FD00225B4801784948FDF722FCFA
:103490004849087000204649464A12788854034635
:1034A0000A46072100906820FDF7F4FB5148027896
:1034B0004C48017848480078FDF70CFF9EE13848F9
:1034C000007808B9012000E000203549087000228A
:1034D00032480B461B7800EBC300CDE90002012304
:1034E0000292082219460020FDF7E2FA2C480078E3
:1034F00018B101202449087002E000202249087018
:103500007CE12A4800780A2803DC0020274908705B
:1035100004E0264800780A382449087023480278D5
:1035200001780078FDF7D6FE012000901F4803784F
:10353000662203210020FDF715FD00221B480178BB
:103540001B48FDF7C7FB1B49087000211848194AA2
:10355000127881540020034623A2032100906820A2
:10356000FDF798FB00200346114A032100906820D4
:10357000FDF790FB42E1114800780A283CDC00206E
:103580000E4908703DE000000A01002098900008F4
:10359000988A00083D01002007010020888A000861
:1035A000080100204C696768743A00000B01002094
:1035B0009A01002034010020180100200F01002092
:1035C000100100204272656174684D6F64650000EF
:1035D0005265643A000000000C01002047726565E6
:1035E0006E3A00000D01002020202000426C75651D
:1035F0003A0000000E010020FE4800780A38FD491C
:10360000087001200090FB480078401003463E22DD
:10361000062103900020FDF7A5FCF64800786428F9
:1036200006DBF4480078642190FBF1F0303000E0D4
:103630002020F1490870EF4800780A280ADBED489D
:1036400000780A2190FBF1F090FBF1F201FB1200EF
:10365000303000E02020E8494870E64800780A2130
:1036600090FBF1F201FB12003030E349887000203A
:1036700003460A46062100904220FDF70BFBBDE001
:10368000DE480078012803DC0020DC49087004E0F3
:10369000DA480078401ED9490870D948007838B90E
:1036A000D8480278D8480178D4480078FDF712FE4F
:1036B00001200090D1480378662203210020FDF705
:1036C00051FC0022CD480178D048FDF703FBD049DA
:1036D00008700021CD48CE4A12788154002003465C
:1036E000AFF2FC02032100906820FDF7D3FA00201E
:1036F0000346C64A032100906820FDF7CBFA7DE01F
:10370000C1480078012803DC0020BF49087004E0AC
:10371000BD480078401EBC490870B948007838B9E7
:10372000B8480278B8480178B4480078FDF7D2FD6F
:1037300001200090B4480378662205210020FDF79F
:1037400011FC0022B0480178B048FDF7C3FAB04937
:1037500008700020AD49AE4A127888540346AFF293
:103760007812052100906820FDF794FA00200346A6
:10377000A64A052100906820FDF78CFA3EE0A1489A
:103780000078012803DC00209E49087004E09D4871
:103790000078401E9B4908709948007838B99948CC
:1037A00002789948017895480078FDF793FD01204B
:1037B000009094480378662207210020FDF7D2FB91
:1037C0000022904801789148FDF784FA90490870EA
:1037D00000208E498E4A127888540346AFF2F812C0
:1037E000072100906820FDF755FA00200346874A1C
:1037F000072100906820FDF74DFA00BF00BFD4E21A
:103800008448007807287AD2DFE800F004F3F2F168
:10381000F0EFEE008048007808B9012000E00020B9
:103820007D49087000227D480B461B7800EBC300E1
:10383000CDE9000201230292082200210846FDF78B
:1038400037F97548007800287ED16D4908707449B1
:10385000087007210120FDF7C9FA00200346AFF2E6
:10386000BC2202210090FDF715FA002000906D485F
:103870000378662203210020FDF774FB00226948CB
:1038800001786248FDF726FA6149087020205F49F7
:103890005F4A127888545E4A1278885400215B4847
:1038A0005B4A1278815400200346584A0321009055
:1038B0006820FDF7EFF95B48027801780078FDF7A2
:1038C00009FD594800683C21B0FBF1F049490870F6
:1038D0000020009008460078401003463E22062152
:1038E00003900020FDF73EFB42480078642807DB88
:1038F00040480078642190FBF1F0303001E013E2A1
:1039000020203D4908703B4800780A280ADB3948E6
:1039100000780A2190FBF1F090FBF1F201FB12001C
:10392000303000E0202034494870324800780A21C5
:1039300090FBF1F201FB120030302F49887000201B
:1039400003460A46062100E004E000904220FDF70D
:10395000A1F9BFE007210120FDF748FA00222F4816
:10396000274B1B7800EBC300CDE900020123029234
:10397000082219460020FDF79BF800200346AFF20D
:10398000BC32012100900A20FDF784F90020034693
:10399000AFF2C43202210090FDF77CF900200090C4
:1039A00016480378662203210020FDF7DBFA002287
:1039B000124801781548FDF78DF915490870002067
:1039C0001249134A1278885403460A46032100908C
:1039D0006820FDF75FF900200346AFF200420421A2
:1039E0000090FDF757F921E0D3E09EE15DE11CE195
:1039F00095E070E00F010020100100200C01002074
:103A0000080100200E0100200D0100209A01002075
:103A1000340100203D01002007010020888A0008B1
:103A20000A0100200B010020180100200020009056
:103A3000FE480378662205210020FDF793FA002254
:103A4000FA480178FA48FDF745F9FA49087000216B
:103A5000F748F84A1278815400200346AFF27842C2
:103A6000052100906820FDF715F900200346F04A73
:103A7000052100906820FDF70DF900200346AFF204
:103A8000944206210090FDF705F900200090EA48D5
:103A90000378662207210020FDF764FA0022E64839
:103AA0000178E348FDF716F9E24908700020E04983
:103AB000E04A1278885403460A460721009068209D
:103AC000FDF7E8F8DC480278D8480178DB48007850
:103AD000FDF700FC68E1DA48007808B9012000E051
:103AE0000020D74908700022D6480B461B7800EB0F
:103AF000C300CDE9000201230292082219460020EA
:103B0000FCF7D6FFCE4800E050E1007818B1012064
:103B1000CD49087002E00020CB49087044E1CB4851
:103B200000785A2803DB6420C849087004E0C748BD
:103B300000780A30C5490870C448027801780078D6
:103B4000FDF7C8FB01200090C048037866220321DE
:103B50000020FDF707FA0022BC480178B448FDF7C1
:103B6000B9F8B44908700020B149B24A12788854B3
:103B70000346AFF28C52032100906820FDF78AF8CB
:103B800000200346AA4A032100906820FDF782F82E
:103B90000AE1AF4800786E2803DB7820AC49087052
:103BA00004E0AB4800780A30A94908700120009071
:103BB000A7480078401003463E22062103900020CB
:103BC000FDF7D0F9A2480078642806DBA048007809
:103BD000642190FBF1F0303000E020209D49087016
:103BE0009B4800780A280ADB994800780A2190FB54
:103BF000F1F090FBF1F201FB1200303000E02020E8
:103C000094494870924800780A2190FBF1F201FB38
:103C1000120030308F498870002003460A46062182
:103C200000904220FDF736F8BEE084480078632813
:103C300003DB64208149087004E080480078401C60
:103C40007E4908707E48007838B97B48027877480A
:103C500001787A480078FDF73DFB01200090774815
:103C60000378662203210020FDF77CF900227348C7
:103C700001786F48FDF72EF86E49087000216C48F6
:103C80006C4A1278815400200346AFF2A4620321EB
:103C900000906820FCF7FEFF00200346644A0321E1
:103CA00000906820FCF7F6FF7EE06048007863280B
:103CB00003DB64205D49087004E05C480078401C28
:103CC0005A4908705E48007838B95B48027857480E
:103CD00001785A480078FDF7FDFA0120009053481A
:103CE0000378662205210020FDF73CF900224F48A9
:103CF00001784F48FCF7EEFF4E49087000214C4810
:103D00004C4A1278815400200346AFF224720521F8
:103D100000906820FCF7BEFF00200346444A0521BE
:103D200000906820FCF7B6FF3EE043480078632827
:103D300003DB64204049087004E03F480078401CE1
:103D40003D4908703E48007838B93B48027837480A
:103D500001783A480078FDF7BDFA01200090364816
:103D60000378662207210020FDF7FCF80022324884
:103D700001782F48FCF7AEFF2E49087000202C492F
:103D80002C4A127888540346AFF2A472072100909F
:103D90006820FCF77FFF00200346254A072100909A
:103DA0006820FCF777FF00BF00BF5FE12A4800787A
:103DB00007283AD2DFE800F0045A79C1E8FEA200F1
:103DC00026480078E8B902202349087000200346FD
:103DD00023A2014600900A20FCF75CFF012000238B
:103DE000AFF64002022100901846FCF753FF012075
:103DF000009016480378662203210020FDF7B2F8F0
:103E000013E00120144908700020034614A2014663
:103E100000900A20FCF73EFF01200023AFF65C0271
:103E2000014600900A20FCF735FFF3E00D01002069
:103E30009A010020340100200E0100200C01002016
:103E400008010020888A00080A0100200B010020D8
:103E50000F010020100100203D010020070100207B
:103E6000436F6C6F724D6F64650000000320FE4964
:103E7000087001200023AFF6A80202210090184626
:103E8000FCF708FF01200090F84803786622032120
:103E90000020FDF767F800200346AFF6D8020121A5
:103EA00000900A20FCF7F6FEB4E00620EE49087008
:103EB00000200346AFF6141202210090FCF7EAFE40
:103EC00000200090EA480378662203210020FDF7D5
:103ED00049F801200023E74A052100901846FCF725
:103EE000D9FE01200090E4480078401003463E22AD
:103EF000062103900020FDF735F88BE00020DA4919
:103F000008700346DB4A05210090FCF7C3FE002041
:103F10000090D9480078401003463E2206210390C5
:103F20000020FDF71FF801200023AFF2CC02194654
:103F300000900A20FCF7AEFE6CE00420CA4908702D
:103F400000200346AFF6781202210090FCF7A2FE93
:103F500000200090C5480378662203210020FDF769
:103F600001F801200023AFF68C12042100901846BE
:103F7000FCF790FE01200090C048037866220521DE
:103F80000020FCF7EFFF45E00520B749087000204E
:103F90000346AFF6B81204210090FCF77BFE002028
:103FA0000090B6480378662205210020FCF7DAFF6E
:103FB000012000E011E00023AFF6D01206210090AE
:103FC0001846FCF767FE01200090AD480378662292
:103FD00007210020FCF7C6FF1CE00020A249087062
:103FE0000346AFF6F81206210090FCF753FE0020BE
:103FF0000090A3480378662207210020FCF7B2FF57
:1040000001200023AFF2A812194600900A20FCF705
:1040100041FE00BF00BF29E097480078002811DD6D
:104020009348007800280DDD9648007850B90120AB
:104030009549087090480078C0EB001080009349C3
:10404000086004E00020904908709049086004204E
:10405000FFF75EF800BF4FF480518D4801F089FEF4
:104060000028F8D001208B49087000BF00BF05B0C0
:1040700000BDFEB5064636B1012E08D0022E09D08D
:10408000032E0ED10AE06FF07F04002517E0802494
:10409000002514E000246FF07F0510E00024802547
:1040A0000DE0FCF74DFC00207B4ACDE90020082301
:1040B0004022014602902020FCF7FAFCFEBD00BF22
:1040C00010E00EB1032E01D1A41C00E0A41E0020BC
:1040D000714908234022CDE90014029001462020B6
:1040E000FCF7E6FCAC42ECD100BFE7E738B504468C
:1040F000012C3CD0022C04D0042C6FD0082C75D19C
:1041000073E06648007808B9012000E000206349A8
:1041100008700846007828B3FCF712FC002003461C
:104120005FA2062100902820FCF7B4FD02226E2138
:104130005F48FCF7CFFD5F49087000205C495D4A8D
:104140001278885403460A46062100906620FCF740
:10415000A1FD0020034658A2072100902820FCF76B
:1041600099FD03E007210620FCF740FE3EE04B48A6
:10417000007808B9012000E000204849087008468E
:10418000007828B3FCF7DCFB0020034644A206219C
:1041900000902820FCF77EFD02226E214448FCF7A7
:1041A00099FD4449087000204149424A12788854D8
:1041B00003460A46062100906620FCF76BFD0020AE
:1041C00003463DA2072100902820FCF763FD03E091
:1041D00007210620FCF70AFE08E0FFE70420FFF7AE
:1041E00048FF05202B49087000E000BF00BF38BD24
:1041F00010B50446012C10D0022C04D0042C16D08B
:10420000082C1ED11CE00220FFF733FF0120FEF72F
:10421000BBF803201F49087013E00320FFF729FFB4
:104220000020FEF775FF01201A49087009E0002000
:104230001A490870FCF784FB06201649087000E054
:1042400000BF00BF10BDFEB50524072602251E488D
:10425000FDF7F3F91D481C490A6802608A888280CC
:1042600089798171002033E03D0100200C0100209C
:104270000B010020042500080F0100200D01002083
:104280000E01002007010020090100201801002074
:10429000000C01403C010020988E000829010020FC
:1042A000536D6172744C65642056312E30000000ED
:1042B0009A0100203401002044657369676E6564CB
:1042C0002062792048470000350100203F0100208E
:1042D0000090601EC1B20023FDA21846FCF7DAFC74
:1042E0003220FE49087030204870FD4880790A214C
:1042F00090FBF1F03030F9498870F94880790A2153
:1043000090FBF1F201FB12003030F449C87000203C
:10431000087103460A46214600901620FCF7BAFCB5
:1043200000200346EFA2214600903020FCF7B2FCAB
:10433000EB4840790A2190FBF1F03030E7490870F2
:10434000E74840790A2190FBF1F201FB120030307E
:10435000E24948700020887003460A4621460090D2
:104360004220FCF797FC00200346DEA22146009085
:104370004E20FCF78FFCDA4800790A2190FBF1F01F
:104380003030D6490870D64800790A2190FBF1F206
:1043900001FB12003030D14948700020887003467C
:1043A0000A46214600906020FCF774FCCC488078D7
:1043B0000A2190FBF1F03030C8490870C848807875
:1043C0000A2190FBF1F201FB12003030C349487022
:1043D0000020887003460A46314600901C20FCF7F6
:1043E00059FC00200346C0A2314600902820FCF76B
:1043F00051FCBB4840780A2190FBF1F03030B749BE
:104400000870B74840780A2190FBF1F201FB1200D6
:104410003030B24948700020887003460A46314661
:1044200000903A20FCF736FC00200346AEA231464D
:1044300000904620FCF72EFCA94800780A2190FB4A
:10444000F1F03030A5490870A54800780A2190FBAA
:10445000F1F201FB12003030A04948700020887052
:1044600003460A46314600905820FCF713FC002012
:104470000090681EC1B200239CA21846FCF70AFCFB
:104480009D4800783C2823DC002000909A4803785F
:10449000482229460420FCF765FD00229648017851
:1044A0008E48FCF717FC9549087073208B49934A96
:1044B000127888540021894A90480078401C115491
:1044C00000200346294600905420FCF7E3FB0FE050
:1044D000002046234822294600900420FCF742FD94
:1044E00000200346864A294600905420FCF7D2FB60
:1044F00000218448844B1B7800EBC300CDE9000108
:104500000123082208460291FCF7D2FA0120002379
:104510007E4A194600900820FCF7BCFBFEBDFEB5A4
:104520000646FCF7B3FE7A490880FDF775F979482D
:10453000FDF783F836B1012E08D0022E09D0032EE4
:104540000ED10AE06FF07F0400250AE080240025E8
:1045500007E000246FF07F0503E00024802500E0E1
:10456000FEBD00BF6EE00EB1032E01D1A41C00E021
:10457000A41E1CB901210020FCF738FC022264486B
:1045800001885648FCF7A6FB5C4908707C215B4813
:104590000078401E514A115443211046574A127860
:1045A00081540021024655480078401C11540020D7
:1045B000234601210090FCF76DFB564801680191EC
:1045C0008188ADF8081080798DF80A00434ADDE94A
:1045D0000101FDF7F3F800202346404A0146009010
:1045E000FCF758FB48480078012805D123460022F3
:1045F00011466A20FCF7A0FC4748027823460021B8
:104600007620FCF783FC0021444800784000C0EB92
:104610000010434A104402230F22CDE901410090CB
:104620005620FCF745FA3B480278016801918188E1
:10463000ADF8081080798DF80A002346DDE9010104
:10464000FCF706FCAC428ED100BF89E710B50446EA
:10465000012C10D0022C04D0042C16D0082C20D110
:104660001EE00220FDF790FE0120FFF758FF00201A
:104670002C49087015E00320FDF786FE0020FFF7A7
:10468000F8FC0520274908700BE0FCF759F9FFF703
:10469000DAFD07202449087004202249087000E050
:1046A00000BF00BF10BD0EB5002116481F4B1B7880
:1046B00000EBC300CDE90001012308220846029166
:1046C000FCF7F6F901200023AFF66C0219462FE043
:1046D00054696D65205365743A0000009A0100200A
:1046E0003F010020202D2000203A200053637265F6
:1046F000656E204F66663A001C01002034010020E0
:1047000048290008888A000800010020702D000850
:1047100004010020350100202800002009010020AC
:104720004C8A00083C0100203E01002007010020C7
:1047300000900A20FCF7AEFAC4480078002874D133
:104740000346C34A02210090FCF7A4FA002000901F
:10475000C0480378662203210020FCF703FC0022F6
:10476000BC480178BC48FCF7B5FABC490870002089
:10477000B949BA4A1278885403460A460321009080
:104780006820FCF787FAB348027801780078FCF7D4
:10479000A1FD00200346B24A05210090FCF77AFAF9
:1047A000B04800683C21B0FBF1F0AF490870002030
:1047B00000900846007843103E2206210020FCF7B6
:1047C000D1FBA9480078642806DBA748007864215B
:1047D00090FBF1F0303000E02020A4490870A2489E
:1047E00000780A280ADBA04800780A2190FBF1F043
:1047F00090FBF1F201FB1200303000E020209B49D9
:104800004870994800780A2190FBF1F201FB1200F0
:10481000303096498870002003460A4606210090F1
:104820004220FCF737FA91E0FFE700219048914BD6
:104830001B7800EBC300CDE900010123082202919F
:1048400019460020FCF734F900200346804A203244
:10485000012100900A20FCF71DFA002003467C4A43
:104860002C3202210090FCF715FA002000908248BB
:104870000378662203210020FCF774FB00227E48A7
:1048800001787548FCF726FA7449087000207249CF
:10489000724A1278885403460A4603210090682021
:1048A000FCF7F8F900200346694A383204210090E9
:1048B000FCF7F0F90020009070480378662205218B
:1048C0000020FCF74FFB00226C4801786248FCF79F
:1048D00001FA6249087000215F48604A12788154E9
:1048E000002003465C4A052100906820FCF7D2F9BD
:1048F00000200346564A483206210090FCF7CAF9C8
:10490000002000905E480378662207210020FCF713
:1049100029FB00225A4801784F48FCF7DBF94F4940
:10492000087000214C484D4A1278815400200346FB
:10493000494A072100906820FCF7ACF950480278FA
:104940004E4801784C480078FCF7C4FC0EBD10B509
:104950000446012C10D0022C04D0042C16D0082CB4
:1049600024D122E00220FEF7D3FB0120FFF781FBD8
:1049700005204449087019E00320FEF7C9FB002018
:10498000FFF7CDFD00203F4908700FE03E4800785A
:10499000022809D0FBF7D4FFFFF785FE00203B4932
:1049A000087002203749087000E000BF00BF10BD4A
:1049B00010B50446012C10D0022C04D0042C16D0C3
:1049C000082C16D114E00220FFF7A9FD0120FEF704
:1049D0009FFB01202B4908700BE00320FFF79FFD90
:1049E0000020FDF7D1FC03202649087001E000E01B
:1049F00000BF00BF10BD10B504462248007807284C
:104A000021D2DFE800F00408180C1C101400204626
:104A1000FFF7CEFF17E02046FFF799FF13E020468F
:104A2000FFF714FE0FE02046FFF7E2FB0BE0204605
:104A3000FFF75CFB07E02046FEF7E2FB03E02046C1
:104A4000FDF7DFFC00BF00BF10BD00000701002024
:104A5000A43500080B0100209A0100203401002039
:104A600004250008180100200F010020100100207B
:104A7000888A0008080100200C0100200D01002098
:104A80000E0100203C0100200A0100203D01002011
:104A900010B5012001F015FD002000F09BFD002065
:104AA00001F021FD002001F01BFD0021084601F06E
:104AB0000BFD012001F014FD00BF392001F0BFFC07
:104AC0000028FAD0022001F00EFD00BF01F014FD15
:104AD0000828FBD1002001F014FD4FF4A06001F084
:104AE00019FD4FF4A06001F01EFD0820FBF76CFEDD
:104AF00010BD00B587B04FF40070019000208DF814
:104B0000080008208DF8090001208DF80A0001A88E
:104B100000F0E0FCFFF7BCFF4FF4165003900020BC
:104B2000ADF81000ADF81200ADF81400ADF81800A3
:104B30000C20ADF8160003A97E4802F060FD0120AC
:104B40007D49087007B000BD10B5012001F0B9FC27
:104B5000012000F03FFD002001F0C5FC002001F025
:104B6000BFFC4FF4C011002001F0AEFC012001F0A9
:104B7000B7FC00BF392001F062FC0028FAD0022007
:104B800001F0B1FC02E0002001F0BBFC01F0B4FC3C
:104B90000828F8D14FF4E06001F0BCFC002001F0DF
:104BA000C2FC2020FBF710FE10BD00B587B04FF40B
:104BB0000070019000208DF8080008208DF8090091
:104BC00001208DF80A0001A800F084FC41F20210D7
:104BD000019000208DF808000C208DF809000020BD
:104BE0008DF80A0001A800F075FCFFF7ADFF4FF447
:104BF000165003900020ADF81000ADF81200ADF88B
:104C00001400ADF818000C20ADF8160003A94948AF
:104C100002F0F5FC00204849087007B000BD1CB543
:104C20000220454908700002009000208DF8040021
:104C300008208DF8050000208DF80600684600F079
:104C400049FC41F20210009000208DF804000C2075
:104C50008DF8050001208DF80600684600F03AFC4A
:104C6000002211461046FCF735FB0121084601F0F1
:104C70005AFB1CBD1FB5FFF70BFF4FF416500090F9
:104C80000020ADF80400ADF80600ADF80800ADF85E
:104C90000C000C20ADF80A006946264802F0AFFC73
:104CA0000120254908701FBD1FB5FFF74DFF4FF4C8
:104CB000165000900020ADF80400ADF80600ADF8E5
:104CC0000800ADF80C000C20ADF80A006946194840
:104CD00002F095FC0020184908701FBD1CB5022089
:104CE000154908700002009000208DF8040008208B
:104CF0008DF8050000208DF80600684600F0EAFBFC
:104D000041F20210009000208DF804000C208DF874
:104D1000050001208DF80600684600F0DBFB00224C
:104D200011461046FCF7D6FA0121084601F0FBFABD
:104D30001CBD0000003801404701002031490143FB
:104D4000314A1160704770B5002100230F22C478EA
:104D50000CB32D4C246804F4E064C4F5E064210A2B
:104D6000C1F10403CA40447804FA03F18478144082
:104D700021430901254C0678A155047804F01F054C
:104D80000124AC4005786D114FF0E02606EB850557
:104D9000C5F8004109E0047804F01F050124AC4087
:104DA0001B4D0678761145F8264070BD194A0A4019
:104DB0000243154B1B1F1A60704739B1124A121D6E
:104DC00012680243104B1B1D1A6006E00E4A121DAA
:104DD000126882430C4B1B1D1A607047042808D1CF
:104DE0004FF0E021096941F004014FF0E022116128
:104DF00007E04FF0E021096921F004014FF0E022C3
:104E0000116170470000FA050CED00E000E400E0DD
:104E100080E100E080FFFF1F10B50446FA4884429D
:104E200008D10121401501F04BFC0021601501F073
:104E300047FC17E0F548844208D10121001501F034
:104E40003FFC0021201501F03BFC0BE0F0488442C0
:104E500008D10121C80301F033FC00214FF40040C8
:104E600001F02EFC10BD30B5024600200023506832
:104E7000E84C20400D790C6844EA0524204350603A
:104E80009068E54C2040D1E902542C434D7944EA26
:104E9000450420439060D06A20F470000C7C641EAE
:104EA000E4B2234340EA0350D06230BD00210160E8
:104EB000017141718160C16001210174704721B1AC
:104EC000826842F00102826003E0826822F00102FF
:104ED0008260704721B1826842F48072826003E090
:104EE000826822F480728260704710B50023CBB2D2
:104EF0001AB144681C43446002E044689C43446027
:104F000010BD816841F008018160704701460020B2
:104F10008A6812F0080F01D0012000E000207047DD
:104F2000816841F0040181607047014600208A6871
:104F300012F0040F01D0012000E00020704721B1E1
:104F4000826842F4A002826003E0826822F4A00238
:104F500082607047014600208A6812F4800F01D0F9
:104F6000012000E00020704710B50A460021002310
:104F7000416821F46041531E41EA4331416010BD54
:104F800021B1426842F40062426003E0426822F4C8
:104F9000006242607047F0B504460D4600200021D3
:104FA000092D11DDE068A5F10A0606EB4607072684
:104FB00006FA07F18843A5F10A0606EB460603FA4E
:104FC00006F10843E0600CE0206905EB4507072681
:104FD00006FA07F1884305EB450603FA06F1084394
:104FE0002061072A0FDA606B561E06EB86071F2624
:104FF00006FA07F18843561E06EB860605FA06F107
:105000000843606322E00D2A0FDA206BD61F06EBFF
:1050100086071F2606FA07F18843D61F06EB860689
:1050200005FA06F10843206310E0E06AA2F10D06DC
:1050300006EB86071F2606FA07F18843A2F10D0644
:1050400006EB860605FA06F10843E062F0BD21B1E1
:10505000826842F48012826003E0826822F4801247
:10506000826070470146C86C80B2704766484C3019
:105070000068704721B1426842F48062426003E0F8
:10508000426822F480624260704721B1426842F473
:105090008052426003E0426822F4805242607047CE
:1050A0000A460021816821F4E04111438160704784
:1050B00021B1826842F40042826003E0826822F4F7
:1050C00000428260704721B1826842F4021282601D
:1050D00003E0826822F402128260704701460020D9
:1050E0008A6812F4001F01D0012000E00020704700
:1050F000F0B504461546002000220026092911DDDE
:10510000E068A1F10A0707EB470C072707FA0CF242
:105110009043A1F10A0707EB470703FA07F2104390
:10512000E0600CE0206901EB410C072707FA0CF264
:10513000904301EB410703FA07F210432061A06B93
:10514000C0F30156EF1C06F1010CA7EB0C0707EBAF
:10515000870C1F2707FA0CF29043EF1C06F1010C95
:10516000A7EB0C0707EB870701FA07F21043A063D0
:10517000F0BD10B50A4600210023816B21F44011D7
:10518000531E41EA0351816310BD08B5002300930B
:105190000090009B0B440093009B1A6008BD08B56B
:1051A000024600200090009201F12800009B184464
:1051B00000900098006880B208BD0A46002141684E
:1051C000164B19401143416070474162826270473B
:1051D0000A460021416821F01F01114341607047D8
:1051E00040B109490831096841F40001064A083212
:1051F000116007E004490831096821F40001024AFE
:10520000083211607047000000240140002801406E
:10521000003C0140FFFEF0FFFDF7F1FFFFFD3FFF07
:105220000246002013680B4201D0012000E000205C
:105230007047CA430260704770B5024600200023E1
:1052400000240B125568CEB205EA060415681D420B
:1052500002D00CB1012000E0002070BD00220A1233
:10526000D34303607047000001684FF6FE7211409F
:1052700001600021016041608160C1608C49884209
:1052800008D18B490839496841F00F01884A083A2A
:1052900051608AE086491431884208D1844908392E
:1052A000496841F0F001824A083A51607DE0804946
:1052B0002831884208D17E490839496841F4706133
:1052C0007B4A083A516070E079493C31884208D104
:1052D00077490839496841F47041754A083A516084
:1052E00063E073495031884208D1714908394968EF
:1052F00041F470216E4A083A516056E06C496431BD
:10530000884208D16A490839496841F47001684AFD
:10531000083A516049E066497831884208D16449C9
:105320000839496841F07061614A083A51603CE0CF
:105330006049884206D1011F096841F00F01021F30
:10534000116032E05B491431884208D15949091F84
:10535000096841F0F001574A121F116025E05549D4
:105360002831884208D15349091F096841F4706106
:10537000504A121F116018E04E493C31884208D152
:105380004C49091F096841F470414A4A121F1160D3
:105390000BE048495031884207D14649091F096846
:1053A00041F47021434A121F1160704710B500226A
:1053B000026847F6F0739A430C6A8B6823430C69C2
:1053C00023434C6923438C692343CC6923434C6AB0
:1053D00023438C6A23431A430260CB6843600B6803
:1053E00083604B68C36010BD002101604160816033
:1053F000C160016141618161C1610162416281629B
:10540000704721B1026842F00102026004E00268C4
:105410004FF6FE731A40026070471AB103680B43DF
:10542000036002E003688B4303607047416070478C
:105430000146486880B2704701460020002211F002
:10544000805F03D01B4B083B1A6802E0184B083BF7
:105450001A680A4201D0012000E00020704710F0D5
:10546000805F03D01349091F086002E01049083922
:105470004860704701460020002211F0805F03D091
:105480000C4B083B1A6802E0094B083B1A680A42B9
:1054900001D0012000E00020704710F0805F03D0B1
:1054A0000449091F086002E0014908394860704753
:1054B0000800024008040240002044490860091D19
:1054C0000860091D0860091D086041483F49143102
:1054D0000860704700213D498279002A3AD00A4687
:1054E000126803689A430B461A600A1D1268036823
:1054F0009A430B1D1A60027911440A6803681A4323
:105500000A60324A0832126803689A432F4B083304
:105510001A601A1D126803689A432C4B0C331A60E8
:105520004279102A0ED11A1F126803681A43274BBA
:1055300008331A601A1D126803681A43234B0C3390
:105540001A600DE02149427911440A6803681A4340
:105550000A6005E0027911440A6803689A430A6008
:1055600070470021016001710C214171002181719E
:1055700070471649103109680143144A103211600E
:10558000704701460020114A143212680A4201D0C5
:10559000012000E0002070470C491431086070477A
:1055A000014600200022094B1B6803EA0102074B59
:1055B00014331B680B4202D00AB1012000E0002026
:1055C0007047024914310860704700000004014030
:1055D000FFFF0F0001460020FE4A106800F038006F
:1055E000084310607047FB49096821F00801F94A37
:1055F000116011460968014311607047F549096857
:1056000021F01001F34A116011460968014311604D
:105610007047F148EF494860F04848607047EE48ED
:10562000EC494860ED4848607047EA48006940F03E
:105630008000E84908617047E648006940F0800052
:10564000E449086170470420E249C96811F0010F7C
:1056500001D001200EE0DF49C96811F0040F01D02C
:10566000022007E0DB49C96811F0100F01D00320C8
:1056700000E00420704700B502460423FFF7E3FF73
:10568000034603E0FFF7DFFF0346521E012B01D163
:10569000002AF7D102B90523184600BD30B50446EB
:1056A00004254FF43020FFF7E6FF0546042D17D1FF
:1056B000C848006940F00200C649086108464461D4
:1056C000006940F0400008614FF43020FFF7D3FF3D
:1056D0000546C048006941F6FD710840BD490861B2
:1056E000284630BD10B504244FF43020FFF7C3FF27
:1056F0000446042C16D1B748006940F00400B549AF
:1057000008610846006940F0400008614FF430200D
:10571000FFF7B1FF0446AF48006941F6FB7108404E
:10572000AC490861204610BD00B502460423FFF7CE
:105730008AFF034603E0FFF786FF0346521E012B54
:1057400001D1002AF7D102B90523184600BD10B5D2
:1057500004244FF43020FFF7E7FF0446042C16D151
:105760009C48006940F004009A49086108460069B5
:1057700040F0400008614FF43020FFF7D5FF0446A9
:105780009448006941F6FB7108409249086120463F
:1057900010BD00208F49C96911F0020F01D001200E
:1057A00000E00020704730B5A5250424FFF7F1FF85
:1057B00000B100254FF43020FFF75DFF0446042CB4
:1057C0003AD18548834988608448886008460069E2
:1057D00040F0200008610846006940F04000086180
:1057E0004FF43020FFF747FF0446042C1BD17948C3
:1057F000006941F6DF710840764908610846006992
:1058000040F01000086176480580E002FFF733FFA2
:105810000446052C10D06F48006941F6EF7108402E
:105820006C49086108E0052C06D06A48006941F619
:10583000EF71084067490861204630BD78B50646DB
:105840000C46042500200090E802FFF714FF0546EF
:10585000042D24D15F48006940F001005D490861D2
:105860003480E802FFF707FF0546042D10D1B01C75
:105870000090200C00990880E802FFF7FCFE054626
:105880005448006941F6FE7108405249086106E03B
:105890005048006941F6FE7108404E4908612846AB
:1058A00078BD70B504460D460426F002FFF7E3FE0E
:1058B0000646042E11D14748006940F001004549D1
:1058C00008612580F002FFF7D6FE064641480069D0
:1058D00041F6FE7108403F490861304670BD70B521
:1058E00005460E460424E002FFF7C5FE0446042CDC
:1058F00017D13948374988603848886008460069B8
:1059000040F0100008612E80E002FFF7B4FE04466C
:10591000052C06D02F48006941F6EF7108402D494B
:105920000861204670BD2DE9F04304464FF6FF762E
:105930003746B046B1460425E443E6B2C4F3072730
:10594000C4F307484FEA1469E802FFF794FE0546DE
:10595000042D49D120481F498860204888600846A6
:10596000006940F010000861FF2E06D01C48083086
:105970000680E802FFF77FFE0546042D08D1FF2FC1
:1059800006D017480A300780E802FFF774FE054684
:10599000042D0AD1B8F1FF0F07D011480C30A0F840
:1059A0000080E802FFF767FE0546042D0AD1B9F131
:1059B000FF0F07D00A480E30A0F80090E802FFF76A
:1059C0005AFE0546052D0FD00248006941F6EF71D9
:1059D000084007E00020024023016745AB89EFCD76
:1059E00000F8FF1F664908612846BDE8F08330B51E
:1059F000054604244FF43020FFF73DFE0446042CF6
:105A000041D160485E4988605F4888600846006907
:105A100040F0200008610846006940F0400008613D
:105A20004FF43020FFF727FE0446042C22D15448BF
:105A3000006941F6DF710840514908610846006974
:105A400040F0100008611DB100205049088002E0BC
:105A5000A5204E4908804FF43020FFF70CFE044685
:105A6000052C10D04648006941F6EF7108404449C2
:105A7000086108E0052C06D04148006941F6DF7155
:105A800008403F490861204630BDF0B505460E4646
:105A9000174604243B483A4988603B488860E00246
:105AA000FFF7E9FD0446042C19D13548006940F0A0
:105AB00010003349086147F0F80030432843334968
:105AC000891C0880E002FFF7D6FD0446052C06D0AD
:105AD0002B48006941F6EF710840294908612046CA
